{
  "contracts/ProposalVoteFactory.sol": {
    "ProposalVoteFactory": {
      "abi": [
        {
          "inputs": [
            {
              "internalType": "uint256",
              "name": "",
              "type": "uint256"
            }
          ],
          "name": "allContracts",
          "outputs": [
            {
              "internalType": "address",
              "name": "deployer",
              "type": "address"
            },
            {
              "internalType": "address",
              "name": "deployedContract",
              "type": "address"
            }
          ],
          "stateMutability": "view",
          "type": "function"
        },
        {
          "inputs": [
            {
              "internalType": "address",
              "name": "_proposalVote",
              "type": "address"
            },
            {
              "internalType": "string",
              "name": "_title",
              "type": "string"
            },
            {
              "internalType": "string",
              "name": "_desc",
              "type": "string"
            },
            {
              "internalType": "uint16",
              "name": "_quorum",
              "type": "uint16"
            }
          ],
          "name": "createProposal",
          "outputs": [],
          "stateMutability": "nonpayable",
          "type": "function"
        },
        {
          "inputs": [],
          "name": "deployProposalVote",
          "outputs": [
            {
              "internalType": "address",
              "name": "contractAddress_",
              "type": "address"
            }
          ],
          "stateMutability": "nonpayable",
          "type": "function"
        },
        {
          "inputs": [],
          "name": "getAllDeployedContracts",
          "outputs": [
            {
              "components": [
                {
                  "internalType": "address",
                  "name": "deployer",
                  "type": "address"
                },
                {
                  "internalType": "address",
                  "name": "deployedContract",
                  "type": "address"
                }
              ],
              "internalType": "struct ProposalVoteFactory.DeployedContractInfo[]",
              "name": "",
              "type": "tuple[]"
            }
          ],
          "stateMutability": "view",
          "type": "function"
        },
        {
          "inputs": [],
          "name": "getAllUserDeployedContracts",
          "outputs": [
            {
              "components": [
                {
                  "internalType": "address",
                  "name": "deployer",
                  "type": "address"
                },
                {
                  "internalType": "address",
                  "name": "deployedContract",
                  "type": "address"
                }
              ],
              "internalType": "struct ProposalVoteFactory.DeployedContractInfo[]",
              "name": "",
              "type": "tuple[]"
            }
          ],
          "stateMutability": "view",
          "type": "function"
        },
        {
          "inputs": [
            {
              "internalType": "uint256",
              "name": "contractIndex",
              "type": "uint256"
            },
            {
              "internalType": "uint8",
              "name": "proposalIndex",
              "type": "uint8"
            }
          ],
          "name": "getProposalFromContract",
          "outputs": [
            {
              "internalType": "string",
              "name": "title_",
              "type": "string"
            },
            {
              "internalType": "string",
              "name": "desc_",
              "type": "string"
            },
            {
              "internalType": "uint16",
              "name": "voteCount_",
              "type": "uint16"
            },
            {
              "internalType": "address[]",
              "name": "voters_",
              "type": "address[]"
            },
            {
              "internalType": "uint16",
              "name": "quorum_",
              "type": "uint16"
            },
            {
              "internalType": "uint8",
              "name": "status_",
              "type": "uint8"
            }
          ],
          "stateMutability": "view",
          "type": "function"
        },
        {
          "inputs": [
            {
              "internalType": "uint256",
              "name": "",
              "type": "uint256"
            }
          ],
          "name": "proposalContracts",
          "outputs": [
            {
              "internalType": "contract IProposalVote",
              "name": "",
              "type": "address"
            }
          ],
          "stateMutability": "view",
          "type": "function"
        },
        {
          "inputs": [
            {
              "internalType": "address",
              "name": "_proposalVote",
              "type": "address"
            },
            {
              "internalType": "uint8",
              "name": "_index",
              "type": "uint8"
            }
          ],
          "name": "voteOnProposal",
          "outputs": [],
          "stateMutability": "nonpayable",
          "type": "function"
        }
      ],
      "evm": {
        "bytecode": {
          "linkReferences": {},
          "object": "6080604052348015600f57600080fd5b5061356c8061001f6000396000f3fe608060405234801561001057600080fd5b50600436106100885760003560e01c806398febabb1161005b57806398febabb1461012e578063bbc0bd131461014a578063e54e26b914610166578063f8cbe5241461019757610088565b80630d1f641a1461008d57806324b96c3b146100c257806344eb63f7146100f25780636c9364b214610110575b600080fd5b6100a760048036038101906100a29190610bb0565b6101b5565b6040516100b996959493929190610d9c565b60405180910390f35b6100dc60048036038101906100d79190610e12565b6102d9565b6040516100e99190610e9e565b60405180910390f35b6100fa610318565b6040516101079190610ec8565b60405180910390f35b610118610652565b6040516101259190610fc1565b60405180910390f35b61014860048036038101906101439190611170565b61075d565b005b610164600480360381019061015f919061120f565b610841565b005b610180600480360381019061017b9190610e12565b61091f565b60405161018e92919061124f565b60405180910390f35b61019f610993565b6040516101ac9190610fc1565b60405180910390f35b606080600060606000806002805490508810610206576040517f08c379a00000000000000000000000000000000000000000000000000000000081526004016101fd906112c4565b60405180910390fd5b6002888154811061021a576102196112e4565b5b9060005260206000200160009054906101000a900473ffffffffffffffffffffffffffffffffffffffff1673ffffffffffffffffffffffffffffffffffffffff1663dac001fe886040518263ffffffff1660e01b815260040161027d9190611313565b600060405180830381865afa15801561029a573d6000803e3d6000fd5b505050506040513d6000823e3d601f19601f820116820180604052508101906102c391906114a5565b9550955095509550955095509295509295509295565b600281815481106102e957600080fd5b906000526020600020016000915054906101000a900473ffffffffffffffffffffffffffffffffffffffff1681565b60008073ffffffffffffffffffffffffffffffffffffffff163373ffffffffffffffffffffffffffffffffffffffff1603610388576040517f08c379a000000000000000000000000000000000000000000000000000000000815260040161037f906115d2565b60405180910390fd5b600060405161039690610ada565b604051809103906000f0801580156103b2573d6000803e3d6000fd5b50905060008190508092506103c5610ae7565b33816000019073ffffffffffffffffffffffffffffffffffffffff16908173ffffffffffffffffffffffffffffffffffffffff168152505081816020019073ffffffffffffffffffffffffffffffffffffffff16908173ffffffffffffffffffffffffffffffffffffffff16815250506000803373ffffffffffffffffffffffffffffffffffffffff1673ffffffffffffffffffffffffffffffffffffffff16815260200190815260200160002081908060018154018082558091505060019003906000526020600020906002020160009091909190915060008201518160000160006101000a81548173ffffffffffffffffffffffffffffffffffffffff021916908373ffffffffffffffffffffffffffffffffffffffff16021790555060208201518160010160006101000a81548173ffffffffffffffffffffffffffffffffffffffff021916908373ffffffffffffffffffffffffffffffffffffffff1602179055505050600181908060018154018082558091505060019003906000526020600020906002020160009091909190915060008201518160000160006101000a81548173ffffffffffffffffffffffffffffffffffffffff021916908373ffffffffffffffffffffffffffffffffffffffff16021790555060208201518160010160006101000a81548173ffffffffffffffffffffffffffffffffffffffff021916908373ffffffffffffffffffffffffffffffffffffffff16021790555050506002829080600181540180825580915050600190039060005260206000200160009091909190916101000a81548173ffffffffffffffffffffffffffffffffffffffff021916908373ffffffffffffffffffffffffffffffffffffffff16021790555050505090565b60606001805480602002602001604051908101604052809291908181526020016000905b8282101561075457838290600052602060002090600202016040518060400160405290816000820160009054906101000a900473ffffffffffffffffffffffffffffffffffffffff1673ffffffffffffffffffffffffffffffffffffffff1673ffffffffffffffffffffffffffffffffffffffff1681526020016001820160009054906101000a900473ffffffffffffffffffffffffffffffffffffffff1673ffffffffffffffffffffffffffffffffffffffff1673ffffffffffffffffffffffffffffffffffffffff168152505081526020019060010190610676565b50505050905090565b600073ffffffffffffffffffffffffffffffffffffffff168473ffffffffffffffffffffffffffffffffffffffff16036107cc576040517f08c379a00000000000000000000000000000000000000000000000000000000081526004016107c39061163e565b60405180910390fd5b8373ffffffffffffffffffffffffffffffffffffffff1663bcf2e0268484846040518463ffffffff1660e01b81526004016108099392919061165e565b600060405180830381600087803b15801561082357600080fd5b505af1158015610837573d6000803e3d6000fd5b5050505050505050565b600073ffffffffffffffffffffffffffffffffffffffff168273ffffffffffffffffffffffffffffffffffffffff16036108b0576040517f08c379a00000000000000000000000000000000000000000000000000000000081526004016108a79061163e565b60405180910390fd5b8173ffffffffffffffffffffffffffffffffffffffff16635521e3bf826040518263ffffffff1660e01b81526004016108e99190611313565b600060405180830381600087803b15801561090357600080fd5b505af1158015610917573d6000803e3d6000fd5b505050505050565b6001818154811061092f57600080fd5b90600052602060002090600202016000915090508060000160009054906101000a900473ffffffffffffffffffffffffffffffffffffffff16908060010160009054906101000a900473ffffffffffffffffffffffffffffffffffffffff16905082565b60606000803373ffffffffffffffffffffffffffffffffffffffff1673ffffffffffffffffffffffffffffffffffffffff168152602001908152602001600020805480602002602001604051908101604052809291908181526020016000905b82821015610ad157838290600052602060002090600202016040518060400160405290816000820160009054906101000a900473ffffffffffffffffffffffffffffffffffffffff1673ffffffffffffffffffffffffffffffffffffffff1673ffffffffffffffffffffffffffffffffffffffff1681526020016001820160009054906101000a900473ffffffffffffffffffffffffffffffffffffffff1673ffffffffffffffffffffffffffffffffffffffff1673ffffffffffffffffffffffffffffffffffffffff1681525050815260200190600101906109f3565b50505050905090565b611e93806116a483390190565b6040518060400160405280600073ffffffffffffffffffffffffffffffffffffffff168152602001600073ffffffffffffffffffffffffffffffffffffffff1681525090565b6000604051905090565b600080fd5b600080fd5b6000819050919050565b610b5481610b41565b8114610b5f57600080fd5b50565b600081359050610b7181610b4b565b92915050565b600060ff82169050919050565b610b8d81610b77565b8114610b9857600080fd5b50565b600081359050610baa81610b84565b92915050565b60008060408385031215610bc757610bc6610b37565b5b6000610bd585828601610b62565b9250506020610be685828601610b9b565b9150509250929050565b600081519050919050565b600082825260208201905092915050565b60005b83811015610c2a578082015181840152602081019050610c0f565b60008484015250505050565b6000601f19601f8301169050919050565b6000610c5282610bf0565b610c5c8185610bfb565b9350610c6c818560208601610c0c565b610c7581610c36565b840191505092915050565b600061ffff82169050919050565b610c9781610c80565b82525050565b600081519050919050565b600082825260208201905092915050565b6000819050602082019050919050565b600073ffffffffffffffffffffffffffffffffffffffff82169050919050565b6000610cf482610cc9565b9050919050565b610d0481610ce9565b82525050565b6000610d168383610cfb565b60208301905092915050565b6000602082019050919050565b6000610d3a82610c9d565b610d448185610ca8565b9350610d4f83610cb9565b8060005b83811015610d80578151610d678882610d0a565b9750610d7283610d22565b925050600181019050610d53565b5085935050505092915050565b610d9681610b77565b82525050565b600060c0820190508181036000830152610db68189610c47565b90508181036020830152610dca8188610c47565b9050610dd96040830187610c8e565b8181036060830152610deb8186610d2f565b9050610dfa6080830185610c8e565b610e0760a0830184610d8d565b979650505050505050565b600060208284031215610e2857610e27610b37565b5b6000610e3684828501610b62565b91505092915050565b6000819050919050565b6000610e64610e5f610e5a84610cc9565b610e3f565b610cc9565b9050919050565b6000610e7682610e49565b9050919050565b6000610e8882610e6b565b9050919050565b610e9881610e7d565b82525050565b6000602082019050610eb36000830184610e8f565b92915050565b610ec281610ce9565b82525050565b6000602082019050610edd6000830184610eb9565b92915050565b600081519050919050565b600082825260208201905092915050565b6000819050602082019050919050565b604082016000820151610f256000850182610cfb565b506020820151610f386020850182610cfb565b50505050565b6000610f4a8383610f0f565b60408301905092915050565b6000602082019050919050565b6000610f6e82610ee3565b610f788185610eee565b9350610f8383610eff565b8060005b83811015610fb4578151610f9b8882610f3e565b9750610fa683610f56565b925050600181019050610f87565b5085935050505092915050565b60006020820190508181036000830152610fdb8184610f63565b905092915050565b610fec81610ce9565b8114610ff757600080fd5b50565b60008135905061100981610fe3565b92915050565b600080fd5b600080fd5b7f4e487b7100000000000000000000000000000000000000000000000000000000600052604160045260246000fd5b61105182610c36565b810181811067ffffffffffffffff821117156110705761106f611019565b5b80604052505050565b6000611083610b2d565b905061108f8282611048565b919050565b600067ffffffffffffffff8211156110af576110ae611019565b5b6110b882610c36565b9050602081019050919050565b82818337600083830152505050565b60006110e76110e284611094565b611079565b90508281526020810184848401111561110357611102611014565b5b61110e8482856110c5565b509392505050565b600082601f83011261112b5761112a61100f565b5b813561113b8482602086016110d4565b91505092915050565b61114d81610c80565b811461115857600080fd5b50565b60008135905061116a81611144565b92915050565b6000806000806080858703121561118a57611189610b37565b5b600061119887828801610ffa565b945050602085013567ffffffffffffffff8111156111b9576111b8610b3c565b5b6111c587828801611116565b935050604085013567ffffffffffffffff8111156111e6576111e5610b3c565b5b6111f287828801611116565b92505060606112038782880161115b565b91505092959194509250565b6000806040838503121561122657611225610b37565b5b600061123485828601610ffa565b925050602061124585828601610b9b565b9150509250929050565b60006040820190506112646000830185610eb9565b6112716020830184610eb9565b9392505050565b7f496e646578206973206f7574206f6620626f756e640000000000000000000000600082015250565b60006112ae601583610bfb565b91506112b982611278565b602082019050919050565b600060208201905081810360008301526112dd816112a1565b9050919050565b7f4e487b7100000000000000000000000000000000000000000000000000000000600052603260045260246000fd5b60006020820190506113286000830184610d8d565b92915050565b600061134161133c84611094565b611079565b90508281526020810184848401111561135d5761135c611014565b5b611368848285610c0c565b509392505050565b600082601f8301126113855761138461100f565b5b815161139584826020860161132e565b91505092915050565b6000815190506113ad81611144565b92915050565b600067ffffffffffffffff8211156113ce576113cd611019565b5b602082029050602081019050919050565b600080fd5b6000815190506113f381610fe3565b92915050565b600061140c611407846113b3565b611079565b9050808382526020820190506020840283018581111561142f5761142e6113df565b5b835b81811015611458578061144488826113e4565b845260208401935050602081019050611431565b5050509392505050565b600082601f8301126114775761147661100f565b5b81516114878482602086016113f9565b91505092915050565b60008151905061149f81610b84565b92915050565b60008060008060008060c087890312156114c2576114c1610b37565b5b600087015167ffffffffffffffff8111156114e0576114df610b3c565b5b6114ec89828a01611370565b965050602087015167ffffffffffffffff81111561150d5761150c610b3c565b5b61151989828a01611370565b955050604061152a89828a0161139e565b945050606087015167ffffffffffffffff81111561154b5761154a610b3c565b5b61155789828a01611462565b935050608061156889828a0161139e565b92505060a061157989828a01611490565b9150509295509295509295565b7f5a65726f2041646472657373206e6f7420616c6c6f7765640000000000000000600082015250565b60006115bc601883610bfb565b91506115c782611586565b602082019050919050565b600060208201905081810360008301526115eb816115af565b9050919050565b7f5a65726f2061646472657373206973206e6f7420616c6c6f7765640000000000600082015250565b6000611628601b83610bfb565b9150611633826115f2565b602082019050919050565b600060208201905081810360008301526116578161161b565b9050919050565b600060608201905081810360008301526116788186610c47565b9050818103602083015261168c8185610c47565b905061169b6040830184610c8e565b94935050505056fe6080604052348015600f57600080fd5b50611e748061001f6000396000f3fe608060405234801561001057600080fd5b50600436106100575760003560e01c8063013cf08b1461005c5780635521e3bf14610090578063bcf2e026146100ac578063cceb68f5146100c8578063dac001fe146100e6575b600080fd5b61007660048036038101906100719190611032565b61011b565b604051610087959493929190611183565b60405180910390f35b6100aa60048036038101906100a5919061121d565b61029a565b005b6100c660048036038101906100c191906113ab565b6106ff565b005b6100d061090d565b6040516100dd91906116e7565b60405180910390f35b61010060048036038101906100fb919061121d565b610b99565b60405161011296959493929190611778565b60405180910390f35b6001818154811061012b57600080fd5b906000526020600020906005020160009150905080600001805461014e9061181d565b80601f016020809104026020016040519081016040528092919081815260200182805461017a9061181d565b80156101c75780601f1061019c576101008083540402835291602001916101c7565b820191906000526020600020905b8154815290600101906020018083116101aa57829003601f168201915b5050505050908060010180546101dc9061181d565b80601f01602080910402602001604051908101604052809291908181526020018280546102089061181d565b80156102555780601f1061022a57610100808354040283529160200191610255565b820191906000526020600020905b81548152906001019060200180831161023857829003601f168201915b5050505050908060020160009054906101000a900461ffff16908060040160009054906101000a900461ffff16908060040160029054906101000a900460ff16905085565b600073ffffffffffffffffffffffffffffffffffffffff163373ffffffffffffffffffffffffffffffffffffffff1603610309576040517f08c379a00000000000000000000000000000000000000000000000000000000081526004016103009061189a565b60405180910390fd5b6001805490508160ff1610610353576040517f08c379a000000000000000000000000000000000000000000000000000000000815260040161034a90611906565b60405180910390fd5b6000803373ffffffffffffffffffffffffffffffffffffffff1673ffffffffffffffffffffffffffffffffffffffff16815260200190815260200160002060008260ff1660ff16815260200190815260200160002060009054906101000a900460ff16156103f6576040517f08c379a00000000000000000000000000000000000000000000000000000000081526004016103ed90611972565b60405180910390fd5b600060018260ff168154811061040f5761040e611992565b5b906000526020600020906005020190506003808111156104325761043161110c565b5b8160040160029054906101000a900460ff1660038111156104565761045561110c565b5b03610496576040517f08c379a000000000000000000000000000000000000000000000000000000000815260040161048d90611a33565b60405180910390fd5b60018160020160008282829054906101000a900461ffff166104b89190611a82565b92506101000a81548161ffff021916908361ffff16021790555080600301339080600181540180825580915050600190039060005260206000200160009091909190916101000a81548173ffffffffffffffffffffffffffffffffffffffff021916908373ffffffffffffffffffffffffffffffffffffffff16021790555060028160040160026101000a81548160ff0219169083600381111561055f5761055e61110c565b5b021790555060016000803373ffffffffffffffffffffffffffffffffffffffff1673ffffffffffffffffffffffffffffffffffffffff16815260200190815260200160002060008460ff1660ff16815260200190815260200160002060006101000a81548160ff0219169083151502179055508060040160009054906101000a900461ffff1661ffff168160020160009054906101000a900461ffff1661ffff16106106995760038160040160026101000a81548160ff0219169083600381111561062d5761062c61110c565b5b0217905550806000016040516106439190611b5b565b60405180910390207ff905f773c0a2b3d406f07062a5f684e9a9e9ee94a78543e4d7e3032a343fe1288260020160009054906101000a900461ffff1660405161068c9190611b72565b60405180910390a26106fb565b806000016040516106aa9190611b5b565b60405180910390207e68f5acd04b88bca43c904950734810e6d43b1f13f00da9e450355cad2735438260020160009054906101000a900461ffff166040516106f29190611b72565b60405180910390a25b5050565b600073ffffffffffffffffffffffffffffffffffffffff163373ffffffffffffffffffffffffffffffffffffffff160361076e576040517f08c379a00000000000000000000000000000000000000000000000000000000081526004016107659061189a565b60405180910390fd5b610776610ef1565b83816000018190525082816020018190525081816080019061ffff16908161ffff168152505060018160a0019060038111156107b5576107b461110c565b5b908160038111156107c9576107c861110c565b5b815250506001819080600181540180825580915050600190039060005260206000209060050201600090919091909150600082015181600001908161080e9190611d24565b5060208201518160010190816108249190611d24565b5060408201518160020160006101000a81548161ffff021916908361ffff1602179055506060820151816003019080519060200190610864929190610f41565b5060808201518160040160006101000a81548161ffff021916908361ffff16021790555060a08201518160040160026101000a81548160ff021916908360038111156108b3576108b261110c565b5b02179055505050836040516108c89190611e27565b60405180910390207fd676bd5a867d12796d6ef62a604d07c83bdce30aaf9471431d7772e1ba09e222836040516108ff9190611b72565b60405180910390a250505050565b60606001805480602002602001604051908101604052809291908181526020016000905b82821015610b9057838290600052602060002090600502016040518060c00160405290816000820180546109649061181d565b80601f01602080910402602001604051908101604052809291908181526020018280546109909061181d565b80156109dd5780601f106109b2576101008083540402835291602001916109dd565b820191906000526020600020905b8154815290600101906020018083116109c057829003601f168201915b505050505081526020016001820180546109f69061181d565b80601f0160208091040260200160405190810160405280929190818152602001828054610a229061181d565b8015610a6f5780601f10610a4457610100808354040283529160200191610a6f565b820191906000526020600020905b815481529060010190602001808311610a5257829003601f168201915b505050505081526020016002820160009054906101000a900461ffff1661ffff1661ffff16815260200160038201805480602002602001604051908101604052809291908181526020018280548015610b1d57602002820191906000526020600020905b8160009054906101000a900473ffffffffffffffffffffffffffffffffffffffff1673ffffffffffffffffffffffffffffffffffffffff1681526020019060010190808311610ad3575b505050505081526020016004820160009054906101000a900461ffff1661ffff1661ffff1681526020016004820160029054906101000a900460ff166003811115610b6b57610b6a61110c565b5b6003811115610b7d57610b7c61110c565b5b8152505081526020019060010190610931565b50505050905090565b60608060006060600080600073ffffffffffffffffffffffffffffffffffffffff163373ffffffffffffffffffffffffffffffffffffffff1603610c12576040517f08c379a0000000000000000000000000000000000000000000000000000000008152600401610c099061189a565b60405180910390fd5b6001805490508760ff1610610c5c576040517f08c379a0000000000000000000000000000000000000000000000000000000008152600401610c5390611906565b60405180910390fd5b600060018860ff1681548110610c7557610c74611992565b5b90600052602060002090600502016040518060c0016040529081600082018054610c9e9061181d565b80601f0160208091040260200160405190810160405280929190818152602001828054610cca9061181d565b8015610d175780601f10610cec57610100808354040283529160200191610d17565b820191906000526020600020905b815481529060010190602001808311610cfa57829003601f168201915b50505050508152602001600182018054610d309061181d565b80601f0160208091040260200160405190810160405280929190818152602001828054610d5c9061181d565b8015610da95780601f10610d7e57610100808354040283529160200191610da9565b820191906000526020600020905b815481529060010190602001808311610d8c57829003601f168201915b505050505081526020016002820160009054906101000a900461ffff1661ffff1661ffff16815260200160038201805480602002602001604051908101604052809291908181526020018280548015610e5757602002820191906000526020600020905b8160009054906101000a900473ffffffffffffffffffffffffffffffffffffffff1673ffffffffffffffffffffffffffffffffffffffff1681526020019060010190808311610e0d575b505050505081526020016004820160009054906101000a900461ffff1661ffff1661ffff1681526020016004820160029054906101000a900460ff166003811115610ea557610ea461110c565b5b6003811115610eb757610eb661110c565b5b81525050905080600001519650806020015195508060800151945080606001519350806040015192508060a0015191505091939550919395565b6040518060c001604052806060815260200160608152602001600061ffff16815260200160608152602001600061ffff16815260200160006003811115610f3b57610f3a61110c565b5b81525090565b828054828255906000526020600020908101928215610fba579160200282015b82811115610fb95782518260006101000a81548173ffffffffffffffffffffffffffffffffffffffff021916908373ffffffffffffffffffffffffffffffffffffffff16021790555091602001919060010190610f61565b5b509050610fc79190610fcb565b5090565b5b80821115610fe4576000816000905550600101610fcc565b5090565b6000604051905090565b600080fd5b600080fd5b6000819050919050565b61100f81610ffc565b811461101a57600080fd5b50565b60008135905061102c81611006565b92915050565b60006020828403121561104857611047610ff2565b5b60006110568482850161101d565b91505092915050565b600081519050919050565b600082825260208201905092915050565b60005b8381101561109957808201518184015260208101905061107e565b60008484015250505050565b6000601f19601f8301169050919050565b60006110c18261105f565b6110cb818561106a565b93506110db81856020860161107b565b6110e4816110a5565b840191505092915050565b600061ffff82169050919050565b611106816110ef565b82525050565b7f4e487b7100000000000000000000000000000000000000000000000000000000600052602160045260246000fd5b6004811061114c5761114b61110c565b5b50565b600081905061115d8261113b565b919050565b600061116d8261114f565b9050919050565b61117d81611162565b82525050565b600060a082019050818103600083015261119d81886110b6565b905081810360208301526111b181876110b6565b90506111c060408301866110fd565b6111cd60608301856110fd565b6111da6080830184611174565b9695505050505050565b600060ff82169050919050565b6111fa816111e4565b811461120557600080fd5b50565b600081359050611217816111f1565b92915050565b60006020828403121561123357611232610ff2565b5b600061124184828501611208565b91505092915050565b600080fd5b600080fd5b7f4e487b7100000000000000000000000000000000000000000000000000000000600052604160045260246000fd5b61128c826110a5565b810181811067ffffffffffffffff821117156112ab576112aa611254565b5b80604052505050565b60006112be610fe8565b90506112ca8282611283565b919050565b600067ffffffffffffffff8211156112ea576112e9611254565b5b6112f3826110a5565b9050602081019050919050565b82818337600083830152505050565b600061132261131d846112cf565b6112b4565b90508281526020810184848401111561133e5761133d61124f565b5b611349848285611300565b509392505050565b600082601f8301126113665761136561124a565b5b813561137684826020860161130f565b91505092915050565b611388816110ef565b811461139357600080fd5b50565b6000813590506113a58161137f565b92915050565b6000806000606084860312156113c4576113c3610ff2565b5b600084013567ffffffffffffffff8111156113e2576113e1610ff7565b5b6113ee86828701611351565b935050602084013567ffffffffffffffff81111561140f5761140e610ff7565b5b61141b86828701611351565b925050604061142c86828701611396565b9150509250925092565b600081519050919050565b600082825260208201905092915050565b6000819050602082019050919050565b600082825260208201905092915050565b600061147e8261105f565b6114888185611462565b935061149881856020860161107b565b6114a1816110a5565b840191505092915050565b6114b5816110ef565b82525050565b600081519050919050565b600082825260208201905092915050565b6000819050602082019050919050565b600073ffffffffffffffffffffffffffffffffffffffff82169050919050565b6000611512826114e7565b9050919050565b61152281611507565b82525050565b60006115348383611519565b60208301905092915050565b6000602082019050919050565b6000611558826114bb565b61156281856114c6565b935061156d836114d7565b8060005b8381101561159e5781516115858882611528565b975061159083611540565b925050600181019050611571565b5085935050505092915050565b6115b481611162565b82525050565b600060c08301600083015184820360008601526115d78282611473565b915050602083015184820360208601526115f18282611473565b915050604083015161160660408601826114ac565b506060830151848203606086015261161e828261154d565b915050608083015161163360808601826114ac565b5060a083015161164660a08601826115ab565b508091505092915050565b600061165d83836115ba565b905092915050565b6000602082019050919050565b600061167d82611436565b6116878185611441565b93508360208202850161169985611452565b8060005b858110156116d557848403895281516116b68582611651565b94506116c183611665565b925060208a0199505060018101905061169d565b50829750879550505050505092915050565b600060208201905081810360008301526117018184611672565b905092915050565b600082825260208201905092915050565b6000611725826114bb565b61172f8185611709565b935061173a836114d7565b8060005b8381101561176b5781516117528882611528565b975061175d83611540565b92505060018101905061173e565b5085935050505092915050565b600060c082019050818103600083015261179281896110b6565b905081810360208301526117a681886110b6565b90506117b560408301876110fd565b81810360608301526117c7818661171a565b90506117d660808301856110fd565b6117e360a0830184611174565b979650505050505050565b7f4e487b7100000000000000000000000000000000000000000000000000000000600052602260045260246000fd5b6000600282049050600182168061183557607f821691505b602082108103611848576118476117ee565b5b50919050565b7f5a65726f2061646472657373206973206e6f7420616c6c6f7765640000000000600082015250565b6000611884601b8361106a565b915061188f8261184e565b602082019050919050565b600060208201905081810360008301526118b381611877565b9050919050565b7f496e646578206973206f7574206f6620626f756e640000000000000000000000600082015250565b60006118f060158361106a565b91506118fb826118ba565b602082019050919050565b6000602082019050818103600083015261191f816118e3565b9050919050565b7f596f75206861766520766f74656420616c726561647900000000000000000000600082015250565b600061195c60168361106a565b915061196782611926565b602082019050919050565b6000602082019050818103600083015261198b8161194f565b9050919050565b7f4e487b7100000000000000000000000000000000000000000000000000000000600052603260045260246000fd5b7f546869732070726f706f73616c20686173206265656e2061636365707465642060008201527f616c726561647900000000000000000000000000000000000000000000000000602082015250565b6000611a1d60278361106a565b9150611a28826119c1565b604082019050919050565b60006020820190508181036000830152611a4c81611a10565b9050919050565b7f4e487b7100000000000000000000000000000000000000000000000000000000600052601160045260246000fd5b6000611a8d826110ef565b9150611a98836110ef565b9250828201905061ffff811115611ab257611ab1611a53565b5b92915050565b600081905092915050565b60008190508160005260206000209050919050565b60008154611ae58161181d565b611aef8186611ab8565b94506001821660008114611b0a5760018114611b1f57611b52565b60ff1983168652811515820286019350611b52565b611b2885611ac3565b60005b83811015611b4a57815481890152600182019150602081019050611b2b565b838801955050505b50505092915050565b6000611b678284611ad8565b915081905092915050565b6000602082019050611b8760008301846110fd565b92915050565b60006020601f8301049050919050565b600082821b905092915050565b600060088302611bda7fffffffffffffffffffffffffffffffffffffffffffffffffffffffffffffffff82611b9d565b611be48683611b9d565b95508019841693508086168417925050509392505050565b6000819050919050565b6000611c21611c1c611c1784610ffc565b611bfc565b610ffc565b9050919050565b6000819050919050565b611c3b83611c06565b611c4f611c4782611c28565b848454611baa565b825550505050565b600090565b611c64611c57565b611c6f818484611c32565b505050565b5b81811015611c9357611c88600082611c5c565b600181019050611c75565b5050565b601f821115611cd857611ca981611ac3565b611cb284611b8d565b81016020851015611cc1578190505b611cd5611ccd85611b8d565b830182611c74565b50505b505050565b600082821c905092915050565b6000611cfb60001984600802611cdd565b1980831691505092915050565b6000611d148383611cea565b9150826002028217905092915050565b611d2d8261105f565b67ffffffffffffffff811115611d4657611d45611254565b5b611d50825461181d565b611d5b828285611c97565b600060209050601f831160018114611d8e5760008415611d7c578287015190505b611d868582611d08565b865550611dee565b601f198416611d9c86611ac3565b60005b82811015611dc457848901518255600182019150602085019450602081019050611d9f565b86831015611de15784890151611ddd601f891682611cea565b8355505b6001600288020188555050505b505050505050565b6000611e018261105f565b611e0b8185611ab8565b9350611e1b81856020860161107b565b80840191505092915050565b6000611e338284611df6565b91508190509291505056fea2646970667358221220eb8d241359e4400aecdda0f9bb2da61a19f8cdbafb83f864aef6b040bf413ddf64736f6c634300081b0033a2646970667358221220b5be0ae8b1f7f694d6bf760e236886192195cbdc9b6e941b58ef1a6b8584120464736f6c634300081b0033",
          "opcodes": "PUSH1 0x80 PUSH1 0x40 MSTORE CALLVALUE DUP1 ISZERO PUSH1 0xF JUMPI PUSH1 0x0 DUP1 REVERT JUMPDEST POP PUSH2 0x356C DUP1 PUSH2 0x1F PUSH1 0x0 CODECOPY PUSH1 0x0 RETURN INVALID PUSH1 0x80 PUSH1 0x40 MSTORE CALLVALUE DUP1 ISZERO PUSH2 0x10 JUMPI PUSH1 0x0 DUP1 REVERT JUMPDEST POP PUSH1 0x4 CALLDATASIZE LT PUSH2 0x88 JUMPI PUSH1 0x0 CALLDATALOAD PUSH1 0xE0 SHR DUP1 PUSH4 0x98FEBABB GT PUSH2 0x5B JUMPI DUP1 PUSH4 0x98FEBABB EQ PUSH2 0x12E JUMPI DUP1 PUSH4 0xBBC0BD13 EQ PUSH2 0x14A JUMPI DUP1 PUSH4 0xE54E26B9 EQ PUSH2 0x166 JUMPI DUP1 PUSH4 0xF8CBE524 EQ PUSH2 0x197 JUMPI PUSH2 0x88 JUMP JUMPDEST DUP1 PUSH4 0xD1F641A EQ PUSH2 0x8D JUMPI DUP1 PUSH4 0x24B96C3B EQ PUSH2 0xC2 JUMPI DUP1 PUSH4 0x44EB63F7 EQ PUSH2 0xF2 JUMPI DUP1 PUSH4 0x6C9364B2 EQ PUSH2 0x110 JUMPI JUMPDEST PUSH1 0x0 DUP1 REVERT JUMPDEST PUSH2 0xA7 PUSH1 0x4 DUP1 CALLDATASIZE SUB DUP2 ADD SWAP1 PUSH2 0xA2 SWAP2 SWAP1 PUSH2 0xBB0 JUMP JUMPDEST PUSH2 0x1B5 JUMP JUMPDEST PUSH1 0x40 MLOAD PUSH2 0xB9 SWAP7 SWAP6 SWAP5 SWAP4 SWAP3 SWAP2 SWAP1 PUSH2 0xD9C JUMP JUMPDEST PUSH1 0x40 MLOAD DUP1 SWAP2 SUB SWAP1 RETURN JUMPDEST PUSH2 0xDC PUSH1 0x4 DUP1 CALLDATASIZE SUB DUP2 ADD SWAP1 PUSH2 0xD7 SWAP2 SWAP1 PUSH2 0xE12 JUMP JUMPDEST PUSH2 0x2D9 JUMP JUMPDEST PUSH1 0x40 MLOAD PUSH2 0xE9 SWAP2 SWAP1 PUSH2 0xE9E JUMP JUMPDEST PUSH1 0x40 MLOAD DUP1 SWAP2 SUB SWAP1 RETURN JUMPDEST PUSH2 0xFA PUSH2 0x318 JUMP JUMPDEST PUSH1 0x40 MLOAD PUSH2 0x107 SWAP2 SWAP1 PUSH2 0xEC8 JUMP JUMPDEST PUSH1 0x40 MLOAD DUP1 SWAP2 SUB SWAP1 RETURN JUMPDEST PUSH2 0x118 PUSH2 0x652 JUMP JUMPDEST PUSH1 0x40 MLOAD PUSH2 0x125 SWAP2 SWAP1 PUSH2 0xFC1 JUMP JUMPDEST PUSH1 0x40 MLOAD DUP1 SWAP2 SUB SWAP1 RETURN JUMPDEST PUSH2 0x148 PUSH1 0x4 DUP1 CALLDATASIZE SUB DUP2 ADD SWAP1 PUSH2 0x143 SWAP2 SWAP1 PUSH2 0x1170 JUMP JUMPDEST PUSH2 0x75D JUMP JUMPDEST STOP JUMPDEST PUSH2 0x164 PUSH1 0x4 DUP1 CALLDATASIZE SUB DUP2 ADD SWAP1 PUSH2 0x15F SWAP2 SWAP1 PUSH2 0x120F JUMP JUMPDEST PUSH2 0x841 JUMP JUMPDEST STOP JUMPDEST PUSH2 0x180 PUSH1 0x4 DUP1 CALLDATASIZE SUB DUP2 ADD SWAP1 PUSH2 0x17B SWAP2 SWAP1 PUSH2 0xE12 JUMP JUMPDEST PUSH2 0x91F JUMP JUMPDEST PUSH1 0x40 MLOAD PUSH2 0x18E SWAP3 SWAP2 SWAP1 PUSH2 0x124F JUMP JUMPDEST PUSH1 0x40 MLOAD DUP1 SWAP2 SUB SWAP1 RETURN JUMPDEST PUSH2 0x19F PUSH2 0x993 JUMP JUMPDEST PUSH1 0x40 MLOAD PUSH2 0x1AC SWAP2 SWAP1 PUSH2 0xFC1 JUMP JUMPDEST PUSH1 0x40 MLOAD DUP1 SWAP2 SUB SWAP1 RETURN JUMPDEST PUSH1 0x60 DUP1 PUSH1 0x0 PUSH1 0x60 PUSH1 0x0 DUP1 PUSH1 0x2 DUP1 SLOAD SWAP1 POP DUP9 LT PUSH2 0x206 JUMPI PUSH1 0x40 MLOAD PUSH32 0x8C379A000000000000000000000000000000000000000000000000000000000 DUP2 MSTORE PUSH1 0x4 ADD PUSH2 0x1FD SWAP1 PUSH2 0x12C4 JUMP JUMPDEST PUSH1 0x40 MLOAD DUP1 SWAP2 SUB SWAP1 REVERT JUMPDEST PUSH1 0x2 DUP9 DUP2 SLOAD DUP2 LT PUSH2 0x21A JUMPI PUSH2 0x219 PUSH2 0x12E4 JUMP JUMPDEST JUMPDEST SWAP1 PUSH1 0x0 MSTORE PUSH1 0x20 PUSH1 0x0 KECCAK256 ADD PUSH1 0x0 SWAP1 SLOAD SWAP1 PUSH2 0x100 EXP SWAP1 DIV PUSH20 0xFFFFFFFFFFFFFFFFFFFFFFFFFFFFFFFFFFFFFFFF AND PUSH20 0xFFFFFFFFFFFFFFFFFFFFFFFFFFFFFFFFFFFFFFFF AND PUSH4 0xDAC001FE DUP9 PUSH1 0x40 MLOAD DUP3 PUSH4 0xFFFFFFFF AND PUSH1 0xE0 SHL DUP2 MSTORE PUSH1 0x4 ADD PUSH2 0x27D SWAP2 SWAP1 PUSH2 0x1313 JUMP JUMPDEST PUSH1 0x0 PUSH1 0x40 MLOAD DUP1 DUP4 SUB DUP2 DUP7 GAS STATICCALL ISZERO DUP1 ISZERO PUSH2 0x29A JUMPI RETURNDATASIZE PUSH1 0x0 DUP1 RETURNDATACOPY RETURNDATASIZE PUSH1 0x0 REVERT JUMPDEST POP POP POP POP PUSH1 0x40 MLOAD RETURNDATASIZE PUSH1 0x0 DUP3 RETURNDATACOPY RETURNDATASIZE PUSH1 0x1F NOT PUSH1 0x1F DUP3 ADD AND DUP3 ADD DUP1 PUSH1 0x40 MSTORE POP DUP2 ADD SWAP1 PUSH2 0x2C3 SWAP2 SWAP1 PUSH2 0x14A5 JUMP JUMPDEST SWAP6 POP SWAP6 POP SWAP6 POP SWAP6 POP SWAP6 POP SWAP6 POP SWAP3 SWAP6 POP SWAP3 SWAP6 POP SWAP3 SWAP6 JUMP JUMPDEST PUSH1 0x2 DUP2 DUP2 SLOAD DUP2 LT PUSH2 0x2E9 JUMPI PUSH1 0x0 DUP1 REVERT JUMPDEST SWAP1 PUSH1 0x0 MSTORE PUSH1 0x20 PUSH1 0x0 KECCAK256 ADD PUSH1 0x0 SWAP2 POP SLOAD SWAP1 PUSH2 0x100 EXP SWAP1 DIV PUSH20 0xFFFFFFFFFFFFFFFFFFFFFFFFFFFFFFFFFFFFFFFF AND DUP2 JUMP JUMPDEST PUSH1 0x0 DUP1 PUSH20 0xFFFFFFFFFFFFFFFFFFFFFFFFFFFFFFFFFFFFFFFF AND CALLER PUSH20 0xFFFFFFFFFFFFFFFFFFFFFFFFFFFFFFFFFFFFFFFF AND SUB PUSH2 0x388 JUMPI PUSH1 0x40 MLOAD PUSH32 0x8C379A000000000000000000000000000000000000000000000000000000000 DUP2 MSTORE PUSH1 0x4 ADD PUSH2 0x37F SWAP1 PUSH2 0x15D2 JUMP JUMPDEST PUSH1 0x40 MLOAD DUP1 SWAP2 SUB SWAP1 REVERT JUMPDEST PUSH1 0x0 PUSH1 0x40 MLOAD PUSH2 0x396 SWAP1 PUSH2 0xADA JUMP JUMPDEST PUSH1 0x40 MLOAD DUP1 SWAP2 SUB SWAP1 PUSH1 0x0 CREATE DUP1 ISZERO DUP1 ISZERO PUSH2 0x3B2 JUMPI RETURNDATASIZE PUSH1 0x0 DUP1 RETURNDATACOPY RETURNDATASIZE PUSH1 0x0 REVERT JUMPDEST POP SWAP1 POP PUSH1 0x0 DUP2 SWAP1 POP DUP1 SWAP3 POP PUSH2 0x3C5 PUSH2 0xAE7 JUMP JUMPDEST CALLER DUP2 PUSH1 0x0 ADD SWAP1 PUSH20 0xFFFFFFFFFFFFFFFFFFFFFFFFFFFFFFFFFFFFFFFF AND SWAP1 DUP2 PUSH20 0xFFFFFFFFFFFFFFFFFFFFFFFFFFFFFFFFFFFFFFFF AND DUP2 MSTORE POP POP DUP2 DUP2 PUSH1 0x20 ADD SWAP1 PUSH20 0xFFFFFFFFFFFFFFFFFFFFFFFFFFFFFFFFFFFFFFFF AND SWAP1 DUP2 PUSH20 0xFFFFFFFFFFFFFFFFFFFFFFFFFFFFFFFFFFFFFFFF AND DUP2 MSTORE POP POP PUSH1 0x0 DUP1 CALLER PUSH20 0xFFFFFFFFFFFFFFFFFFFFFFFFFFFFFFFFFFFFFFFF AND PUSH20 0xFFFFFFFFFFFFFFFFFFFFFFFFFFFFFFFFFFFFFFFF AND DUP2 MSTORE PUSH1 0x20 ADD SWAP1 DUP2 MSTORE PUSH1 0x20 ADD PUSH1 0x0 KECCAK256 DUP2 SWAP1 DUP1 PUSH1 0x1 DUP2 SLOAD ADD DUP1 DUP3 SSTORE DUP1 SWAP2 POP POP PUSH1 0x1 SWAP1 SUB SWAP1 PUSH1 0x0 MSTORE PUSH1 0x20 PUSH1 0x0 KECCAK256 SWAP1 PUSH1 0x2 MUL ADD PUSH1 0x0 SWAP1 SWAP2 SWAP1 SWAP2 SWAP1 SWAP2 POP PUSH1 0x0 DUP3 ADD MLOAD DUP2 PUSH1 0x0 ADD PUSH1 0x0 PUSH2 0x100 EXP DUP2 SLOAD DUP2 PUSH20 0xFFFFFFFFFFFFFFFFFFFFFFFFFFFFFFFFFFFFFFFF MUL NOT AND SWAP1 DUP4 PUSH20 0xFFFFFFFFFFFFFFFFFFFFFFFFFFFFFFFFFFFFFFFF AND MUL OR SWAP1 SSTORE POP PUSH1 0x20 DUP3 ADD MLOAD DUP2 PUSH1 0x1 ADD PUSH1 0x0 PUSH2 0x100 EXP DUP2 SLOAD DUP2 PUSH20 0xFFFFFFFFFFFFFFFFFFFFFFFFFFFFFFFFFFFFFFFF MUL NOT AND SWAP1 DUP4 PUSH20 0xFFFFFFFFFFFFFFFFFFFFFFFFFFFFFFFFFFFFFFFF AND MUL OR SWAP1 SSTORE POP POP POP PUSH1 0x1 DUP2 SWAP1 DUP1 PUSH1 0x1 DUP2 SLOAD ADD DUP1 DUP3 SSTORE DUP1 SWAP2 POP POP PUSH1 0x1 SWAP1 SUB SWAP1 PUSH1 0x0 MSTORE PUSH1 0x20 PUSH1 0x0 KECCAK256 SWAP1 PUSH1 0x2 MUL ADD PUSH1 0x0 SWAP1 SWAP2 SWAP1 SWAP2 SWAP1 SWAP2 POP PUSH1 0x0 DUP3 ADD MLOAD DUP2 PUSH1 0x0 ADD PUSH1 0x0 PUSH2 0x100 EXP DUP2 SLOAD DUP2 PUSH20 0xFFFFFFFFFFFFFFFFFFFFFFFFFFFFFFFFFFFFFFFF MUL NOT AND SWAP1 DUP4 PUSH20 0xFFFFFFFFFFFFFFFFFFFFFFFFFFFFFFFFFFFFFFFF AND MUL OR SWAP1 SSTORE POP PUSH1 0x20 DUP3 ADD MLOAD DUP2 PUSH1 0x1 ADD PUSH1 0x0 PUSH2 0x100 EXP DUP2 SLOAD DUP2 PUSH20 0xFFFFFFFFFFFFFFFFFFFFFFFFFFFFFFFFFFFFFFFF MUL NOT AND SWAP1 DUP4 PUSH20 0xFFFFFFFFFFFFFFFFFFFFFFFFFFFFFFFFFFFFFFFF AND MUL OR SWAP1 SSTORE POP POP POP PUSH1 0x2 DUP3 SWAP1 DUP1 PUSH1 0x1 DUP2 SLOAD ADD DUP1 DUP3 SSTORE DUP1 SWAP2 POP POP PUSH1 0x1 SWAP1 SUB SWAP1 PUSH1 0x0 MSTORE PUSH1 0x20 PUSH1 0x0 KECCAK256 ADD PUSH1 0x0 SWAP1 SWAP2 SWAP1 SWAP2 SWAP1 SWAP2 PUSH2 0x100 EXP DUP2 SLOAD DUP2 PUSH20 0xFFFFFFFFFFFFFFFFFFFFFFFFFFFFFFFFFFFFFFFF MUL NOT AND SWAP1 DUP4 PUSH20 0xFFFFFFFFFFFFFFFFFFFFFFFFFFFFFFFFFFFFFFFF AND MUL OR SWAP1 SSTORE POP POP POP POP SWAP1 JUMP JUMPDEST PUSH1 0x60 PUSH1 0x1 DUP1 SLOAD DUP1 PUSH1 0x20 MUL PUSH1 0x20 ADD PUSH1 0x40 MLOAD SWAP1 DUP2 ADD PUSH1 0x40 MSTORE DUP1 SWAP3 SWAP2 SWAP1 DUP2 DUP2 MSTORE PUSH1 0x20 ADD PUSH1 0x0 SWAP1 JUMPDEST DUP3 DUP3 LT ISZERO PUSH2 0x754 JUMPI DUP4 DUP3 SWAP1 PUSH1 0x0 MSTORE PUSH1 0x20 PUSH1 0x0 KECCAK256 SWAP1 PUSH1 0x2 MUL ADD PUSH1 0x40 MLOAD DUP1 PUSH1 0x40 ADD PUSH1 0x40 MSTORE SWAP1 DUP2 PUSH1 0x0 DUP3 ADD PUSH1 0x0 SWAP1 SLOAD SWAP1 PUSH2 0x100 EXP SWAP1 DIV PUSH20 0xFFFFFFFFFFFFFFFFFFFFFFFFFFFFFFFFFFFFFFFF AND PUSH20 0xFFFFFFFFFFFFFFFFFFFFFFFFFFFFFFFFFFFFFFFF AND PUSH20 0xFFFFFFFFFFFFFFFFFFFFFFFFFFFFFFFFFFFFFFFF AND DUP2 MSTORE PUSH1 0x20 ADD PUSH1 0x1 DUP3 ADD PUSH1 0x0 SWAP1 SLOAD SWAP1 PUSH2 0x100 EXP SWAP1 DIV PUSH20 0xFFFFFFFFFFFFFFFFFFFFFFFFFFFFFFFFFFFFFFFF AND PUSH20 0xFFFFFFFFFFFFFFFFFFFFFFFFFFFFFFFFFFFFFFFF AND PUSH20 0xFFFFFFFFFFFFFFFFFFFFFFFFFFFFFFFFFFFFFFFF AND DUP2 MSTORE POP POP DUP2 MSTORE PUSH1 0x20 ADD SWAP1 PUSH1 0x1 ADD SWAP1 PUSH2 0x676 JUMP JUMPDEST POP POP POP POP SWAP1 POP SWAP1 JUMP JUMPDEST PUSH1 0x0 PUSH20 0xFFFFFFFFFFFFFFFFFFFFFFFFFFFFFFFFFFFFFFFF AND DUP5 PUSH20 0xFFFFFFFFFFFFFFFFFFFFFFFFFFFFFFFFFFFFFFFF AND SUB PUSH2 0x7CC JUMPI PUSH1 0x40 MLOAD PUSH32 0x8C379A000000000000000000000000000000000000000000000000000000000 DUP2 MSTORE PUSH1 0x4 ADD PUSH2 0x7C3 SWAP1 PUSH2 0x163E JUMP JUMPDEST PUSH1 0x40 MLOAD DUP1 SWAP2 SUB SWAP1 REVERT JUMPDEST DUP4 PUSH20 0xFFFFFFFFFFFFFFFFFFFFFFFFFFFFFFFFFFFFFFFF AND PUSH4 0xBCF2E026 DUP5 DUP5 DUP5 PUSH1 0x40 MLOAD DUP5 PUSH4 0xFFFFFFFF AND PUSH1 0xE0 SHL DUP2 MSTORE PUSH1 0x4 ADD PUSH2 0x809 SWAP4 SWAP3 SWAP2 SWAP1 PUSH2 0x165E JUMP JUMPDEST PUSH1 0x0 PUSH1 0x40 MLOAD DUP1 DUP4 SUB DUP2 PUSH1 0x0 DUP8 DUP1 EXTCODESIZE ISZERO DUP1 ISZERO PUSH2 0x823 JUMPI PUSH1 0x0 DUP1 REVERT JUMPDEST POP GAS CALL ISZERO DUP1 ISZERO PUSH2 0x837 JUMPI RETURNDATASIZE PUSH1 0x0 DUP1 RETURNDATACOPY RETURNDATASIZE PUSH1 0x0 REVERT JUMPDEST POP POP POP POP POP POP POP POP JUMP JUMPDEST PUSH1 0x0 PUSH20 0xFFFFFFFFFFFFFFFFFFFFFFFFFFFFFFFFFFFFFFFF AND DUP3 PUSH20 0xFFFFFFFFFFFFFFFFFFFFFFFFFFFFFFFFFFFFFFFF AND SUB PUSH2 0x8B0 JUMPI PUSH1 0x40 MLOAD PUSH32 0x8C379A000000000000000000000000000000000000000000000000000000000 DUP2 MSTORE PUSH1 0x4 ADD PUSH2 0x8A7 SWAP1 PUSH2 0x163E JUMP JUMPDEST PUSH1 0x40 MLOAD DUP1 SWAP2 SUB SWAP1 REVERT JUMPDEST DUP2 PUSH20 0xFFFFFFFFFFFFFFFFFFFFFFFFFFFFFFFFFFFFFFFF AND PUSH4 0x5521E3BF DUP3 PUSH1 0x40 MLOAD DUP3 PUSH4 0xFFFFFFFF AND PUSH1 0xE0 SHL DUP2 MSTORE PUSH1 0x4 ADD PUSH2 0x8E9 SWAP2 SWAP1 PUSH2 0x1313 JUMP JUMPDEST PUSH1 0x0 PUSH1 0x40 MLOAD DUP1 DUP4 SUB DUP2 PUSH1 0x0 DUP8 DUP1 EXTCODESIZE ISZERO DUP1 ISZERO PUSH2 0x903 JUMPI PUSH1 0x0 DUP1 REVERT JUMPDEST POP GAS CALL ISZERO DUP1 ISZERO PUSH2 0x917 JUMPI RETURNDATASIZE PUSH1 0x0 DUP1 RETURNDATACOPY RETURNDATASIZE PUSH1 0x0 REVERT JUMPDEST POP POP POP POP POP POP JUMP JUMPDEST PUSH1 0x1 DUP2 DUP2 SLOAD DUP2 LT PUSH2 0x92F JUMPI PUSH1 0x0 DUP1 REVERT JUMPDEST SWAP1 PUSH1 0x0 MSTORE PUSH1 0x20 PUSH1 0x0 KECCAK256 SWAP1 PUSH1 0x2 MUL ADD PUSH1 0x0 SWAP2 POP SWAP1 POP DUP1 PUSH1 0x0 ADD PUSH1 0x0 SWAP1 SLOAD SWAP1 PUSH2 0x100 EXP SWAP1 DIV PUSH20 0xFFFFFFFFFFFFFFFFFFFFFFFFFFFFFFFFFFFFFFFF AND SWAP1 DUP1 PUSH1 0x1 ADD PUSH1 0x0 SWAP1 SLOAD SWAP1 PUSH2 0x100 EXP SWAP1 DIV PUSH20 0xFFFFFFFFFFFFFFFFFFFFFFFFFFFFFFFFFFFFFFFF AND SWAP1 POP DUP3 JUMP JUMPDEST PUSH1 0x60 PUSH1 0x0 DUP1 CALLER PUSH20 0xFFFFFFFFFFFFFFFFFFFFFFFFFFFFFFFFFFFFFFFF AND PUSH20 0xFFFFFFFFFFFFFFFFFFFFFFFFFFFFFFFFFFFFFFFF AND DUP2 MSTORE PUSH1 0x20 ADD SWAP1 DUP2 MSTORE PUSH1 0x20 ADD PUSH1 0x0 KECCAK256 DUP1 SLOAD DUP1 PUSH1 0x20 MUL PUSH1 0x20 ADD PUSH1 0x40 MLOAD SWAP1 DUP2 ADD PUSH1 0x40 MSTORE DUP1 SWAP3 SWAP2 SWAP1 DUP2 DUP2 MSTORE PUSH1 0x20 ADD PUSH1 0x0 SWAP1 JUMPDEST DUP3 DUP3 LT ISZERO PUSH2 0xAD1 JUMPI DUP4 DUP3 SWAP1 PUSH1 0x0 MSTORE PUSH1 0x20 PUSH1 0x0 KECCAK256 SWAP1 PUSH1 0x2 MUL ADD PUSH1 0x40 MLOAD DUP1 PUSH1 0x40 ADD PUSH1 0x40 MSTORE SWAP1 DUP2 PUSH1 0x0 DUP3 ADD PUSH1 0x0 SWAP1 SLOAD SWAP1 PUSH2 0x100 EXP SWAP1 DIV PUSH20 0xFFFFFFFFFFFFFFFFFFFFFFFFFFFFFFFFFFFFFFFF AND PUSH20 0xFFFFFFFFFFFFFFFFFFFFFFFFFFFFFFFFFFFFFFFF AND PUSH20 0xFFFFFFFFFFFFFFFFFFFFFFFFFFFFFFFFFFFFFFFF AND DUP2 MSTORE PUSH1 0x20 ADD PUSH1 0x1 DUP3 ADD PUSH1 0x0 SWAP1 SLOAD SWAP1 PUSH2 0x100 EXP SWAP1 DIV PUSH20 0xFFFFFFFFFFFFFFFFFFFFFFFFFFFFFFFFFFFFFFFF AND PUSH20 0xFFFFFFFFFFFFFFFFFFFFFFFFFFFFFFFFFFFFFFFF AND PUSH20 0xFFFFFFFFFFFFFFFFFFFFFFFFFFFFFFFFFFFFFFFF AND DUP2 MSTORE POP POP DUP2 MSTORE PUSH1 0x20 ADD SWAP1 PUSH1 0x1 ADD SWAP1 PUSH2 0x9F3 JUMP JUMPDEST POP POP POP POP SWAP1 POP SWAP1 JUMP JUMPDEST PUSH2 0x1E93 DUP1 PUSH2 0x16A4 DUP4 CODECOPY ADD SWAP1 JUMP JUMPDEST PUSH1 0x40 MLOAD DUP1 PUSH1 0x40 ADD PUSH1 0x40 MSTORE DUP1 PUSH1 0x0 PUSH20 0xFFFFFFFFFFFFFFFFFFFFFFFFFFFFFFFFFFFFFFFF AND DUP2 MSTORE PUSH1 0x20 ADD PUSH1 0x0 PUSH20 0xFFFFFFFFFFFFFFFFFFFFFFFFFFFFFFFFFFFFFFFF AND DUP2 MSTORE POP SWAP1 JUMP JUMPDEST PUSH1 0x0 PUSH1 0x40 MLOAD SWAP1 POP SWAP1 JUMP JUMPDEST PUSH1 0x0 DUP1 REVERT JUMPDEST PUSH1 0x0 DUP1 REVERT JUMPDEST PUSH1 0x0 DUP2 SWAP1 POP SWAP2 SWAP1 POP JUMP JUMPDEST PUSH2 0xB54 DUP2 PUSH2 0xB41 JUMP JUMPDEST DUP2 EQ PUSH2 0xB5F JUMPI PUSH1 0x0 DUP1 REVERT JUMPDEST POP JUMP JUMPDEST PUSH1 0x0 DUP2 CALLDATALOAD SWAP1 POP PUSH2 0xB71 DUP2 PUSH2 0xB4B JUMP JUMPDEST SWAP3 SWAP2 POP POP JUMP JUMPDEST PUSH1 0x0 PUSH1 0xFF DUP3 AND SWAP1 POP SWAP2 SWAP1 POP JUMP JUMPDEST PUSH2 0xB8D DUP2 PUSH2 0xB77 JUMP JUMPDEST DUP2 EQ PUSH2 0xB98 JUMPI PUSH1 0x0 DUP1 REVERT JUMPDEST POP JUMP JUMPDEST PUSH1 0x0 DUP2 CALLDATALOAD SWAP1 POP PUSH2 0xBAA DUP2 PUSH2 0xB84 JUMP JUMPDEST SWAP3 SWAP2 POP POP JUMP JUMPDEST PUSH1 0x0 DUP1 PUSH1 0x40 DUP4 DUP6 SUB SLT ISZERO PUSH2 0xBC7 JUMPI PUSH2 0xBC6 PUSH2 0xB37 JUMP JUMPDEST JUMPDEST PUSH1 0x0 PUSH2 0xBD5 DUP6 DUP3 DUP7 ADD PUSH2 0xB62 JUMP JUMPDEST SWAP3 POP POP PUSH1 0x20 PUSH2 0xBE6 DUP6 DUP3 DUP7 ADD PUSH2 0xB9B JUMP JUMPDEST SWAP2 POP POP SWAP3 POP SWAP3 SWAP1 POP JUMP JUMPDEST PUSH1 0x0 DUP2 MLOAD SWAP1 POP SWAP2 SWAP1 POP JUMP JUMPDEST PUSH1 0x0 DUP3 DUP3 MSTORE PUSH1 0x20 DUP3 ADD SWAP1 POP SWAP3 SWAP2 POP POP JUMP JUMPDEST PUSH1 0x0 JUMPDEST DUP4 DUP2 LT ISZERO PUSH2 0xC2A JUMPI DUP1 DUP3 ADD MLOAD DUP2 DUP5 ADD MSTORE PUSH1 0x20 DUP2 ADD SWAP1 POP PUSH2 0xC0F JUMP JUMPDEST PUSH1 0x0 DUP5 DUP5 ADD MSTORE POP POP POP POP JUMP JUMPDEST PUSH1 0x0 PUSH1 0x1F NOT PUSH1 0x1F DUP4 ADD AND SWAP1 POP SWAP2 SWAP1 POP JUMP JUMPDEST PUSH1 0x0 PUSH2 0xC52 DUP3 PUSH2 0xBF0 JUMP JUMPDEST PUSH2 0xC5C DUP2 DUP6 PUSH2 0xBFB JUMP JUMPDEST SWAP4 POP PUSH2 0xC6C DUP2 DUP6 PUSH1 0x20 DUP7 ADD PUSH2 0xC0C JUMP JUMPDEST PUSH2 0xC75 DUP2 PUSH2 0xC36 JUMP JUMPDEST DUP5 ADD SWAP2 POP POP SWAP3 SWAP2 POP POP JUMP JUMPDEST PUSH1 0x0 PUSH2 0xFFFF DUP3 AND SWAP1 POP SWAP2 SWAP1 POP JUMP JUMPDEST PUSH2 0xC97 DUP2 PUSH2 0xC80 JUMP JUMPDEST DUP3 MSTORE POP POP JUMP JUMPDEST PUSH1 0x0 DUP2 MLOAD SWAP1 POP SWAP2 SWAP1 POP JUMP JUMPDEST PUSH1 0x0 DUP3 DUP3 MSTORE PUSH1 0x20 DUP3 ADD SWAP1 POP SWAP3 SWAP2 POP POP JUMP JUMPDEST PUSH1 0x0 DUP2 SWAP1 POP PUSH1 0x20 DUP3 ADD SWAP1 POP SWAP2 SWAP1 POP JUMP JUMPDEST PUSH1 0x0 PUSH20 0xFFFFFFFFFFFFFFFFFFFFFFFFFFFFFFFFFFFFFFFF DUP3 AND SWAP1 POP SWAP2 SWAP1 POP JUMP JUMPDEST PUSH1 0x0 PUSH2 0xCF4 DUP3 PUSH2 0xCC9 JUMP JUMPDEST SWAP1 POP SWAP2 SWAP1 POP JUMP JUMPDEST PUSH2 0xD04 DUP2 PUSH2 0xCE9 JUMP JUMPDEST DUP3 MSTORE POP POP JUMP JUMPDEST PUSH1 0x0 PUSH2 0xD16 DUP4 DUP4 PUSH2 0xCFB JUMP JUMPDEST PUSH1 0x20 DUP4 ADD SWAP1 POP SWAP3 SWAP2 POP POP JUMP JUMPDEST PUSH1 0x0 PUSH1 0x20 DUP3 ADD SWAP1 POP SWAP2 SWAP1 POP JUMP JUMPDEST PUSH1 0x0 PUSH2 0xD3A DUP3 PUSH2 0xC9D JUMP JUMPDEST PUSH2 0xD44 DUP2 DUP6 PUSH2 0xCA8 JUMP JUMPDEST SWAP4 POP PUSH2 0xD4F DUP4 PUSH2 0xCB9 JUMP JUMPDEST DUP1 PUSH1 0x0 JUMPDEST DUP4 DUP2 LT ISZERO PUSH2 0xD80 JUMPI DUP2 MLOAD PUSH2 0xD67 DUP9 DUP3 PUSH2 0xD0A JUMP JUMPDEST SWAP8 POP PUSH2 0xD72 DUP4 PUSH2 0xD22 JUMP JUMPDEST SWAP3 POP POP PUSH1 0x1 DUP2 ADD SWAP1 POP PUSH2 0xD53 JUMP JUMPDEST POP DUP6 SWAP4 POP POP POP POP SWAP3 SWAP2 POP POP JUMP JUMPDEST PUSH2 0xD96 DUP2 PUSH2 0xB77 JUMP JUMPDEST DUP3 MSTORE POP POP JUMP JUMPDEST PUSH1 0x0 PUSH1 0xC0 DUP3 ADD SWAP1 POP DUP2 DUP2 SUB PUSH1 0x0 DUP4 ADD MSTORE PUSH2 0xDB6 DUP2 DUP10 PUSH2 0xC47 JUMP JUMPDEST SWAP1 POP DUP2 DUP2 SUB PUSH1 0x20 DUP4 ADD MSTORE PUSH2 0xDCA DUP2 DUP9 PUSH2 0xC47 JUMP JUMPDEST SWAP1 POP PUSH2 0xDD9 PUSH1 0x40 DUP4 ADD DUP8 PUSH2 0xC8E JUMP JUMPDEST DUP2 DUP2 SUB PUSH1 0x60 DUP4 ADD MSTORE PUSH2 0xDEB DUP2 DUP7 PUSH2 0xD2F JUMP JUMPDEST SWAP1 POP PUSH2 0xDFA PUSH1 0x80 DUP4 ADD DUP6 PUSH2 0xC8E JUMP JUMPDEST PUSH2 0xE07 PUSH1 0xA0 DUP4 ADD DUP5 PUSH2 0xD8D JUMP JUMPDEST SWAP8 SWAP7 POP POP POP POP POP POP POP JUMP JUMPDEST PUSH1 0x0 PUSH1 0x20 DUP3 DUP5 SUB SLT ISZERO PUSH2 0xE28 JUMPI PUSH2 0xE27 PUSH2 0xB37 JUMP JUMPDEST JUMPDEST PUSH1 0x0 PUSH2 0xE36 DUP5 DUP3 DUP6 ADD PUSH2 0xB62 JUMP JUMPDEST SWAP2 POP POP SWAP3 SWAP2 POP POP JUMP JUMPDEST PUSH1 0x0 DUP2 SWAP1 POP SWAP2 SWAP1 POP JUMP JUMPDEST PUSH1 0x0 PUSH2 0xE64 PUSH2 0xE5F PUSH2 0xE5A DUP5 PUSH2 0xCC9 JUMP JUMPDEST PUSH2 0xE3F JUMP JUMPDEST PUSH2 0xCC9 JUMP JUMPDEST SWAP1 POP SWAP2 SWAP1 POP JUMP JUMPDEST PUSH1 0x0 PUSH2 0xE76 DUP3 PUSH2 0xE49 JUMP JUMPDEST SWAP1 POP SWAP2 SWAP1 POP JUMP JUMPDEST PUSH1 0x0 PUSH2 0xE88 DUP3 PUSH2 0xE6B JUMP JUMPDEST SWAP1 POP SWAP2 SWAP1 POP JUMP JUMPDEST PUSH2 0xE98 DUP2 PUSH2 0xE7D JUMP JUMPDEST DUP3 MSTORE POP POP JUMP JUMPDEST PUSH1 0x0 PUSH1 0x20 DUP3 ADD SWAP1 POP PUSH2 0xEB3 PUSH1 0x0 DUP4 ADD DUP5 PUSH2 0xE8F JUMP JUMPDEST SWAP3 SWAP2 POP POP JUMP JUMPDEST PUSH2 0xEC2 DUP2 PUSH2 0xCE9 JUMP JUMPDEST DUP3 MSTORE POP POP JUMP JUMPDEST PUSH1 0x0 PUSH1 0x20 DUP3 ADD SWAP1 POP PUSH2 0xEDD PUSH1 0x0 DUP4 ADD DUP5 PUSH2 0xEB9 JUMP JUMPDEST SWAP3 SWAP2 POP POP JUMP JUMPDEST PUSH1 0x0 DUP2 MLOAD SWAP1 POP SWAP2 SWAP1 POP JUMP JUMPDEST PUSH1 0x0 DUP3 DUP3 MSTORE PUSH1 0x20 DUP3 ADD SWAP1 POP SWAP3 SWAP2 POP POP JUMP JUMPDEST PUSH1 0x0 DUP2 SWAP1 POP PUSH1 0x20 DUP3 ADD SWAP1 POP SWAP2 SWAP1 POP JUMP JUMPDEST PUSH1 0x40 DUP3 ADD PUSH1 0x0 DUP3 ADD MLOAD PUSH2 0xF25 PUSH1 0x0 DUP6 ADD DUP3 PUSH2 0xCFB JUMP JUMPDEST POP PUSH1 0x20 DUP3 ADD MLOAD PUSH2 0xF38 PUSH1 0x20 DUP6 ADD DUP3 PUSH2 0xCFB JUMP JUMPDEST POP POP POP POP JUMP JUMPDEST PUSH1 0x0 PUSH2 0xF4A DUP4 DUP4 PUSH2 0xF0F JUMP JUMPDEST PUSH1 0x40 DUP4 ADD SWAP1 POP SWAP3 SWAP2 POP POP JUMP JUMPDEST PUSH1 0x0 PUSH1 0x20 DUP3 ADD SWAP1 POP SWAP2 SWAP1 POP JUMP JUMPDEST PUSH1 0x0 PUSH2 0xF6E DUP3 PUSH2 0xEE3 JUMP JUMPDEST PUSH2 0xF78 DUP2 DUP6 PUSH2 0xEEE JUMP JUMPDEST SWAP4 POP PUSH2 0xF83 DUP4 PUSH2 0xEFF JUMP JUMPDEST DUP1 PUSH1 0x0 JUMPDEST DUP4 DUP2 LT ISZERO PUSH2 0xFB4 JUMPI DUP2 MLOAD PUSH2 0xF9B DUP9 DUP3 PUSH2 0xF3E JUMP JUMPDEST SWAP8 POP PUSH2 0xFA6 DUP4 PUSH2 0xF56 JUMP JUMPDEST SWAP3 POP POP PUSH1 0x1 DUP2 ADD SWAP1 POP PUSH2 0xF87 JUMP JUMPDEST POP DUP6 SWAP4 POP POP POP POP SWAP3 SWAP2 POP POP JUMP JUMPDEST PUSH1 0x0 PUSH1 0x20 DUP3 ADD SWAP1 POP DUP2 DUP2 SUB PUSH1 0x0 DUP4 ADD MSTORE PUSH2 0xFDB DUP2 DUP5 PUSH2 0xF63 JUMP JUMPDEST SWAP1 POP SWAP3 SWAP2 POP POP JUMP JUMPDEST PUSH2 0xFEC DUP2 PUSH2 0xCE9 JUMP JUMPDEST DUP2 EQ PUSH2 0xFF7 JUMPI PUSH1 0x0 DUP1 REVERT JUMPDEST POP JUMP JUMPDEST PUSH1 0x0 DUP2 CALLDATALOAD SWAP1 POP PUSH2 0x1009 DUP2 PUSH2 0xFE3 JUMP JUMPDEST SWAP3 SWAP2 POP POP JUMP JUMPDEST PUSH1 0x0 DUP1 REVERT JUMPDEST PUSH1 0x0 DUP1 REVERT JUMPDEST PUSH32 0x4E487B7100000000000000000000000000000000000000000000000000000000 PUSH1 0x0 MSTORE PUSH1 0x41 PUSH1 0x4 MSTORE PUSH1 0x24 PUSH1 0x0 REVERT JUMPDEST PUSH2 0x1051 DUP3 PUSH2 0xC36 JUMP JUMPDEST DUP2 ADD DUP2 DUP2 LT PUSH8 0xFFFFFFFFFFFFFFFF DUP3 GT OR ISZERO PUSH2 0x1070 JUMPI PUSH2 0x106F PUSH2 0x1019 JUMP JUMPDEST JUMPDEST DUP1 PUSH1 0x40 MSTORE POP POP POP JUMP JUMPDEST PUSH1 0x0 PUSH2 0x1083 PUSH2 0xB2D JUMP JUMPDEST SWAP1 POP PUSH2 0x108F DUP3 DUP3 PUSH2 0x1048 JUMP JUMPDEST SWAP2 SWAP1 POP JUMP JUMPDEST PUSH1 0x0 PUSH8 0xFFFFFFFFFFFFFFFF DUP3 GT ISZERO PUSH2 0x10AF JUMPI PUSH2 0x10AE PUSH2 0x1019 JUMP JUMPDEST JUMPDEST PUSH2 0x10B8 DUP3 PUSH2 0xC36 JUMP JUMPDEST SWAP1 POP PUSH1 0x20 DUP2 ADD SWAP1 POP SWAP2 SWAP1 POP JUMP JUMPDEST DUP3 DUP2 DUP4 CALLDATACOPY PUSH1 0x0 DUP4 DUP4 ADD MSTORE POP POP POP JUMP JUMPDEST PUSH1 0x0 PUSH2 0x10E7 PUSH2 0x10E2 DUP5 PUSH2 0x1094 JUMP JUMPDEST PUSH2 0x1079 JUMP JUMPDEST SWAP1 POP DUP3 DUP2 MSTORE PUSH1 0x20 DUP2 ADD DUP5 DUP5 DUP5 ADD GT ISZERO PUSH2 0x1103 JUMPI PUSH2 0x1102 PUSH2 0x1014 JUMP JUMPDEST JUMPDEST PUSH2 0x110E DUP5 DUP3 DUP6 PUSH2 0x10C5 JUMP JUMPDEST POP SWAP4 SWAP3 POP POP POP JUMP JUMPDEST PUSH1 0x0 DUP3 PUSH1 0x1F DUP4 ADD SLT PUSH2 0x112B JUMPI PUSH2 0x112A PUSH2 0x100F JUMP JUMPDEST JUMPDEST DUP2 CALLDATALOAD PUSH2 0x113B DUP5 DUP3 PUSH1 0x20 DUP7 ADD PUSH2 0x10D4 JUMP JUMPDEST SWAP2 POP POP SWAP3 SWAP2 POP POP JUMP JUMPDEST PUSH2 0x114D DUP2 PUSH2 0xC80 JUMP JUMPDEST DUP2 EQ PUSH2 0x1158 JUMPI PUSH1 0x0 DUP1 REVERT JUMPDEST POP JUMP JUMPDEST PUSH1 0x0 DUP2 CALLDATALOAD SWAP1 POP PUSH2 0x116A DUP2 PUSH2 0x1144 JUMP JUMPDEST SWAP3 SWAP2 POP POP JUMP JUMPDEST PUSH1 0x0 DUP1 PUSH1 0x0 DUP1 PUSH1 0x80 DUP6 DUP8 SUB SLT ISZERO PUSH2 0x118A JUMPI PUSH2 0x1189 PUSH2 0xB37 JUMP JUMPDEST JUMPDEST PUSH1 0x0 PUSH2 0x1198 DUP8 DUP3 DUP9 ADD PUSH2 0xFFA JUMP JUMPDEST SWAP5 POP POP PUSH1 0x20 DUP6 ADD CALLDATALOAD PUSH8 0xFFFFFFFFFFFFFFFF DUP2 GT ISZERO PUSH2 0x11B9 JUMPI PUSH2 0x11B8 PUSH2 0xB3C JUMP JUMPDEST JUMPDEST PUSH2 0x11C5 DUP8 DUP3 DUP9 ADD PUSH2 0x1116 JUMP JUMPDEST SWAP4 POP POP PUSH1 0x40 DUP6 ADD CALLDATALOAD PUSH8 0xFFFFFFFFFFFFFFFF DUP2 GT ISZERO PUSH2 0x11E6 JUMPI PUSH2 0x11E5 PUSH2 0xB3C JUMP JUMPDEST JUMPDEST PUSH2 0x11F2 DUP8 DUP3 DUP9 ADD PUSH2 0x1116 JUMP JUMPDEST SWAP3 POP POP PUSH1 0x60 PUSH2 0x1203 DUP8 DUP3 DUP9 ADD PUSH2 0x115B JUMP JUMPDEST SWAP2 POP POP SWAP3 SWAP6 SWAP2 SWAP5 POP SWAP3 POP JUMP JUMPDEST PUSH1 0x0 DUP1 PUSH1 0x40 DUP4 DUP6 SUB SLT ISZERO PUSH2 0x1226 JUMPI PUSH2 0x1225 PUSH2 0xB37 JUMP JUMPDEST JUMPDEST PUSH1 0x0 PUSH2 0x1234 DUP6 DUP3 DUP7 ADD PUSH2 0xFFA JUMP JUMPDEST SWAP3 POP POP PUSH1 0x20 PUSH2 0x1245 DUP6 DUP3 DUP7 ADD PUSH2 0xB9B JUMP JUMPDEST SWAP2 POP POP SWAP3 POP SWAP3 SWAP1 POP JUMP JUMPDEST PUSH1 0x0 PUSH1 0x40 DUP3 ADD SWAP1 POP PUSH2 0x1264 PUSH1 0x0 DUP4 ADD DUP6 PUSH2 0xEB9 JUMP JUMPDEST PUSH2 0x1271 PUSH1 0x20 DUP4 ADD DUP5 PUSH2 0xEB9 JUMP JUMPDEST SWAP4 SWAP3 POP POP POP JUMP JUMPDEST PUSH32 0x496E646578206973206F7574206F6620626F756E640000000000000000000000 PUSH1 0x0 DUP3 ADD MSTORE POP JUMP JUMPDEST PUSH1 0x0 PUSH2 0x12AE PUSH1 0x15 DUP4 PUSH2 0xBFB JUMP JUMPDEST SWAP2 POP PUSH2 0x12B9 DUP3 PUSH2 0x1278 JUMP JUMPDEST PUSH1 0x20 DUP3 ADD SWAP1 POP SWAP2 SWAP1 POP JUMP JUMPDEST PUSH1 0x0 PUSH1 0x20 DUP3 ADD SWAP1 POP DUP2 DUP2 SUB PUSH1 0x0 DUP4 ADD MSTORE PUSH2 0x12DD DUP2 PUSH2 0x12A1 JUMP JUMPDEST SWAP1 POP SWAP2 SWAP1 POP JUMP JUMPDEST PUSH32 0x4E487B7100000000000000000000000000000000000000000000000000000000 PUSH1 0x0 MSTORE PUSH1 0x32 PUSH1 0x4 MSTORE PUSH1 0x24 PUSH1 0x0 REVERT JUMPDEST PUSH1 0x0 PUSH1 0x20 DUP3 ADD SWAP1 POP PUSH2 0x1328 PUSH1 0x0 DUP4 ADD DUP5 PUSH2 0xD8D JUMP JUMPDEST SWAP3 SWAP2 POP POP JUMP JUMPDEST PUSH1 0x0 PUSH2 0x1341 PUSH2 0x133C DUP5 PUSH2 0x1094 JUMP JUMPDEST PUSH2 0x1079 JUMP JUMPDEST SWAP1 POP DUP3 DUP2 MSTORE PUSH1 0x20 DUP2 ADD DUP5 DUP5 DUP5 ADD GT ISZERO PUSH2 0x135D JUMPI PUSH2 0x135C PUSH2 0x1014 JUMP JUMPDEST JUMPDEST PUSH2 0x1368 DUP5 DUP3 DUP6 PUSH2 0xC0C JUMP JUMPDEST POP SWAP4 SWAP3 POP POP POP JUMP JUMPDEST PUSH1 0x0 DUP3 PUSH1 0x1F DUP4 ADD SLT PUSH2 0x1385 JUMPI PUSH2 0x1384 PUSH2 0x100F JUMP JUMPDEST JUMPDEST DUP2 MLOAD PUSH2 0x1395 DUP5 DUP3 PUSH1 0x20 DUP7 ADD PUSH2 0x132E JUMP JUMPDEST SWAP2 POP POP SWAP3 SWAP2 POP POP JUMP JUMPDEST PUSH1 0x0 DUP2 MLOAD SWAP1 POP PUSH2 0x13AD DUP2 PUSH2 0x1144 JUMP JUMPDEST SWAP3 SWAP2 POP POP JUMP JUMPDEST PUSH1 0x0 PUSH8 0xFFFFFFFFFFFFFFFF DUP3 GT ISZERO PUSH2 0x13CE JUMPI PUSH2 0x13CD PUSH2 0x1019 JUMP JUMPDEST JUMPDEST PUSH1 0x20 DUP3 MUL SWAP1 POP PUSH1 0x20 DUP2 ADD SWAP1 POP SWAP2 SWAP1 POP JUMP JUMPDEST PUSH1 0x0 DUP1 REVERT JUMPDEST PUSH1 0x0 DUP2 MLOAD SWAP1 POP PUSH2 0x13F3 DUP2 PUSH2 0xFE3 JUMP JUMPDEST SWAP3 SWAP2 POP POP JUMP JUMPDEST PUSH1 0x0 PUSH2 0x140C PUSH2 0x1407 DUP5 PUSH2 0x13B3 JUMP JUMPDEST PUSH2 0x1079 JUMP JUMPDEST SWAP1 POP DUP1 DUP4 DUP3 MSTORE PUSH1 0x20 DUP3 ADD SWAP1 POP PUSH1 0x20 DUP5 MUL DUP4 ADD DUP6 DUP2 GT ISZERO PUSH2 0x142F JUMPI PUSH2 0x142E PUSH2 0x13DF JUMP JUMPDEST JUMPDEST DUP4 JUMPDEST DUP2 DUP2 LT ISZERO PUSH2 0x1458 JUMPI DUP1 PUSH2 0x1444 DUP9 DUP3 PUSH2 0x13E4 JUMP JUMPDEST DUP5 MSTORE PUSH1 0x20 DUP5 ADD SWAP4 POP POP PUSH1 0x20 DUP2 ADD SWAP1 POP PUSH2 0x1431 JUMP JUMPDEST POP POP POP SWAP4 SWAP3 POP POP POP JUMP JUMPDEST PUSH1 0x0 DUP3 PUSH1 0x1F DUP4 ADD SLT PUSH2 0x1477 JUMPI PUSH2 0x1476 PUSH2 0x100F JUMP JUMPDEST JUMPDEST DUP2 MLOAD PUSH2 0x1487 DUP5 DUP3 PUSH1 0x20 DUP7 ADD PUSH2 0x13F9 JUMP JUMPDEST SWAP2 POP POP SWAP3 SWAP2 POP POP JUMP JUMPDEST PUSH1 0x0 DUP2 MLOAD SWAP1 POP PUSH2 0x149F DUP2 PUSH2 0xB84 JUMP JUMPDEST SWAP3 SWAP2 POP POP JUMP JUMPDEST PUSH1 0x0 DUP1 PUSH1 0x0 DUP1 PUSH1 0x0 DUP1 PUSH1 0xC0 DUP8 DUP10 SUB SLT ISZERO PUSH2 0x14C2 JUMPI PUSH2 0x14C1 PUSH2 0xB37 JUMP JUMPDEST JUMPDEST PUSH1 0x0 DUP8 ADD MLOAD PUSH8 0xFFFFFFFFFFFFFFFF DUP2 GT ISZERO PUSH2 0x14E0 JUMPI PUSH2 0x14DF PUSH2 0xB3C JUMP JUMPDEST JUMPDEST PUSH2 0x14EC DUP10 DUP3 DUP11 ADD PUSH2 0x1370 JUMP JUMPDEST SWAP7 POP POP PUSH1 0x20 DUP8 ADD MLOAD PUSH8 0xFFFFFFFFFFFFFFFF DUP2 GT ISZERO PUSH2 0x150D JUMPI PUSH2 0x150C PUSH2 0xB3C JUMP JUMPDEST JUMPDEST PUSH2 0x1519 DUP10 DUP3 DUP11 ADD PUSH2 0x1370 JUMP JUMPDEST SWAP6 POP POP PUSH1 0x40 PUSH2 0x152A DUP10 DUP3 DUP11 ADD PUSH2 0x139E JUMP JUMPDEST SWAP5 POP POP PUSH1 0x60 DUP8 ADD MLOAD PUSH8 0xFFFFFFFFFFFFFFFF DUP2 GT ISZERO PUSH2 0x154B JUMPI PUSH2 0x154A PUSH2 0xB3C JUMP JUMPDEST JUMPDEST PUSH2 0x1557 DUP10 DUP3 DUP11 ADD PUSH2 0x1462 JUMP JUMPDEST SWAP4 POP POP PUSH1 0x80 PUSH2 0x1568 DUP10 DUP3 DUP11 ADD PUSH2 0x139E JUMP JUMPDEST SWAP3 POP POP PUSH1 0xA0 PUSH2 0x1579 DUP10 DUP3 DUP11 ADD PUSH2 0x1490 JUMP JUMPDEST SWAP2 POP POP SWAP3 SWAP6 POP SWAP3 SWAP6 POP SWAP3 SWAP6 JUMP JUMPDEST PUSH32 0x5A65726F2041646472657373206E6F7420616C6C6F7765640000000000000000 PUSH1 0x0 DUP3 ADD MSTORE POP JUMP JUMPDEST PUSH1 0x0 PUSH2 0x15BC PUSH1 0x18 DUP4 PUSH2 0xBFB JUMP JUMPDEST SWAP2 POP PUSH2 0x15C7 DUP3 PUSH2 0x1586 JUMP JUMPDEST PUSH1 0x20 DUP3 ADD SWAP1 POP SWAP2 SWAP1 POP JUMP JUMPDEST PUSH1 0x0 PUSH1 0x20 DUP3 ADD SWAP1 POP DUP2 DUP2 SUB PUSH1 0x0 DUP4 ADD MSTORE PUSH2 0x15EB DUP2 PUSH2 0x15AF JUMP JUMPDEST SWAP1 POP SWAP2 SWAP1 POP JUMP JUMPDEST PUSH32 0x5A65726F2061646472657373206973206E6F7420616C6C6F7765640000000000 PUSH1 0x0 DUP3 ADD MSTORE POP JUMP JUMPDEST PUSH1 0x0 PUSH2 0x1628 PUSH1 0x1B DUP4 PUSH2 0xBFB JUMP JUMPDEST SWAP2 POP PUSH2 0x1633 DUP3 PUSH2 0x15F2 JUMP JUMPDEST PUSH1 0x20 DUP3 ADD SWAP1 POP SWAP2 SWAP1 POP JUMP JUMPDEST PUSH1 0x0 PUSH1 0x20 DUP3 ADD SWAP1 POP DUP2 DUP2 SUB PUSH1 0x0 DUP4 ADD MSTORE PUSH2 0x1657 DUP2 PUSH2 0x161B JUMP JUMPDEST SWAP1 POP SWAP2 SWAP1 POP JUMP JUMPDEST PUSH1 0x0 PUSH1 0x60 DUP3 ADD SWAP1 POP DUP2 DUP2 SUB PUSH1 0x0 DUP4 ADD MSTORE PUSH2 0x1678 DUP2 DUP7 PUSH2 0xC47 JUMP JUMPDEST SWAP1 POP DUP2 DUP2 SUB PUSH1 0x20 DUP4 ADD MSTORE PUSH2 0x168C DUP2 DUP6 PUSH2 0xC47 JUMP JUMPDEST SWAP1 POP PUSH2 0x169B PUSH1 0x40 DUP4 ADD DUP5 PUSH2 0xC8E JUMP JUMPDEST SWAP5 SWAP4 POP POP POP POP JUMP INVALID PUSH1 0x80 PUSH1 0x40 MSTORE CALLVALUE DUP1 ISZERO PUSH1 0xF JUMPI PUSH1 0x0 DUP1 REVERT JUMPDEST POP PUSH2 0x1E74 DUP1 PUSH2 0x1F PUSH1 0x0 CODECOPY PUSH1 0x0 RETURN INVALID PUSH1 0x80 PUSH1 0x40 MSTORE CALLVALUE DUP1 ISZERO PUSH2 0x10 JUMPI PUSH1 0x0 DUP1 REVERT JUMPDEST POP PUSH1 0x4 CALLDATASIZE LT PUSH2 0x57 JUMPI PUSH1 0x0 CALLDATALOAD PUSH1 0xE0 SHR DUP1 PUSH4 0x13CF08B EQ PUSH2 0x5C JUMPI DUP1 PUSH4 0x5521E3BF EQ PUSH2 0x90 JUMPI DUP1 PUSH4 0xBCF2E026 EQ PUSH2 0xAC JUMPI DUP1 PUSH4 0xCCEB68F5 EQ PUSH2 0xC8 JUMPI DUP1 PUSH4 0xDAC001FE EQ PUSH2 0xE6 JUMPI JUMPDEST PUSH1 0x0 DUP1 REVERT JUMPDEST PUSH2 0x76 PUSH1 0x4 DUP1 CALLDATASIZE SUB DUP2 ADD SWAP1 PUSH2 0x71 SWAP2 SWAP1 PUSH2 0x1032 JUMP JUMPDEST PUSH2 0x11B JUMP JUMPDEST PUSH1 0x40 MLOAD PUSH2 0x87 SWAP6 SWAP5 SWAP4 SWAP3 SWAP2 SWAP1 PUSH2 0x1183 JUMP JUMPDEST PUSH1 0x40 MLOAD DUP1 SWAP2 SUB SWAP1 RETURN JUMPDEST PUSH2 0xAA PUSH1 0x4 DUP1 CALLDATASIZE SUB DUP2 ADD SWAP1 PUSH2 0xA5 SWAP2 SWAP1 PUSH2 0x121D JUMP JUMPDEST PUSH2 0x29A JUMP JUMPDEST STOP JUMPDEST PUSH2 0xC6 PUSH1 0x4 DUP1 CALLDATASIZE SUB DUP2 ADD SWAP1 PUSH2 0xC1 SWAP2 SWAP1 PUSH2 0x13AB JUMP JUMPDEST PUSH2 0x6FF JUMP JUMPDEST STOP JUMPDEST PUSH2 0xD0 PUSH2 0x90D JUMP JUMPDEST PUSH1 0x40 MLOAD PUSH2 0xDD SWAP2 SWAP1 PUSH2 0x16E7 JUMP JUMPDEST PUSH1 0x40 MLOAD DUP1 SWAP2 SUB SWAP1 RETURN JUMPDEST PUSH2 0x100 PUSH1 0x4 DUP1 CALLDATASIZE SUB DUP2 ADD SWAP1 PUSH2 0xFB SWAP2 SWAP1 PUSH2 0x121D JUMP JUMPDEST PUSH2 0xB99 JUMP JUMPDEST PUSH1 0x40 MLOAD PUSH2 0x112 SWAP7 SWAP6 SWAP5 SWAP4 SWAP3 SWAP2 SWAP1 PUSH2 0x1778 JUMP JUMPDEST PUSH1 0x40 MLOAD DUP1 SWAP2 SUB SWAP1 RETURN JUMPDEST PUSH1 0x1 DUP2 DUP2 SLOAD DUP2 LT PUSH2 0x12B JUMPI PUSH1 0x0 DUP1 REVERT JUMPDEST SWAP1 PUSH1 0x0 MSTORE PUSH1 0x20 PUSH1 0x0 KECCAK256 SWAP1 PUSH1 0x5 MUL ADD PUSH1 0x0 SWAP2 POP SWAP1 POP DUP1 PUSH1 0x0 ADD DUP1 SLOAD PUSH2 0x14E SWAP1 PUSH2 0x181D JUMP JUMPDEST DUP1 PUSH1 0x1F ADD PUSH1 0x20 DUP1 SWAP2 DIV MUL PUSH1 0x20 ADD PUSH1 0x40 MLOAD SWAP1 DUP2 ADD PUSH1 0x40 MSTORE DUP1 SWAP3 SWAP2 SWAP1 DUP2 DUP2 MSTORE PUSH1 0x20 ADD DUP3 DUP1 SLOAD PUSH2 0x17A SWAP1 PUSH2 0x181D JUMP JUMPDEST DUP1 ISZERO PUSH2 0x1C7 JUMPI DUP1 PUSH1 0x1F LT PUSH2 0x19C JUMPI PUSH2 0x100 DUP1 DUP4 SLOAD DIV MUL DUP4 MSTORE SWAP2 PUSH1 0x20 ADD SWAP2 PUSH2 0x1C7 JUMP JUMPDEST DUP3 ADD SWAP2 SWAP1 PUSH1 0x0 MSTORE PUSH1 0x20 PUSH1 0x0 KECCAK256 SWAP1 JUMPDEST DUP2 SLOAD DUP2 MSTORE SWAP1 PUSH1 0x1 ADD SWAP1 PUSH1 0x20 ADD DUP1 DUP4 GT PUSH2 0x1AA JUMPI DUP3 SWAP1 SUB PUSH1 0x1F AND DUP3 ADD SWAP2 JUMPDEST POP POP POP POP POP SWAP1 DUP1 PUSH1 0x1 ADD DUP1 SLOAD PUSH2 0x1DC SWAP1 PUSH2 0x181D JUMP JUMPDEST DUP1 PUSH1 0x1F ADD PUSH1 0x20 DUP1 SWAP2 DIV MUL PUSH1 0x20 ADD PUSH1 0x40 MLOAD SWAP1 DUP2 ADD PUSH1 0x40 MSTORE DUP1 SWAP3 SWAP2 SWAP1 DUP2 DUP2 MSTORE PUSH1 0x20 ADD DUP3 DUP1 SLOAD PUSH2 0x208 SWAP1 PUSH2 0x181D JUMP JUMPDEST DUP1 ISZERO PUSH2 0x255 JUMPI DUP1 PUSH1 0x1F LT PUSH2 0x22A JUMPI PUSH2 0x100 DUP1 DUP4 SLOAD DIV MUL DUP4 MSTORE SWAP2 PUSH1 0x20 ADD SWAP2 PUSH2 0x255 JUMP JUMPDEST DUP3 ADD SWAP2 SWAP1 PUSH1 0x0 MSTORE PUSH1 0x20 PUSH1 0x0 KECCAK256 SWAP1 JUMPDEST DUP2 SLOAD DUP2 MSTORE SWAP1 PUSH1 0x1 ADD SWAP1 PUSH1 0x20 ADD DUP1 DUP4 GT PUSH2 0x238 JUMPI DUP3 SWAP1 SUB PUSH1 0x1F AND DUP3 ADD SWAP2 JUMPDEST POP POP POP POP POP SWAP1 DUP1 PUSH1 0x2 ADD PUSH1 0x0 SWAP1 SLOAD SWAP1 PUSH2 0x100 EXP SWAP1 DIV PUSH2 0xFFFF AND SWAP1 DUP1 PUSH1 0x4 ADD PUSH1 0x0 SWAP1 SLOAD SWAP1 PUSH2 0x100 EXP SWAP1 DIV PUSH2 0xFFFF AND SWAP1 DUP1 PUSH1 0x4 ADD PUSH1 0x2 SWAP1 SLOAD SWAP1 PUSH2 0x100 EXP SWAP1 DIV PUSH1 0xFF AND SWAP1 POP DUP6 JUMP JUMPDEST PUSH1 0x0 PUSH20 0xFFFFFFFFFFFFFFFFFFFFFFFFFFFFFFFFFFFFFFFF AND CALLER PUSH20 0xFFFFFFFFFFFFFFFFFFFFFFFFFFFFFFFFFFFFFFFF AND SUB PUSH2 0x309 JUMPI PUSH1 0x40 MLOAD PUSH32 0x8C379A000000000000000000000000000000000000000000000000000000000 DUP2 MSTORE PUSH1 0x4 ADD PUSH2 0x300 SWAP1 PUSH2 0x189A JUMP JUMPDEST PUSH1 0x40 MLOAD DUP1 SWAP2 SUB SWAP1 REVERT JUMPDEST PUSH1 0x1 DUP1 SLOAD SWAP1 POP DUP2 PUSH1 0xFF AND LT PUSH2 0x353 JUMPI PUSH1 0x40 MLOAD PUSH32 0x8C379A000000000000000000000000000000000000000000000000000000000 DUP2 MSTORE PUSH1 0x4 ADD PUSH2 0x34A SWAP1 PUSH2 0x1906 JUMP JUMPDEST PUSH1 0x40 MLOAD DUP1 SWAP2 SUB SWAP1 REVERT JUMPDEST PUSH1 0x0 DUP1 CALLER PUSH20 0xFFFFFFFFFFFFFFFFFFFFFFFFFFFFFFFFFFFFFFFF AND PUSH20 0xFFFFFFFFFFFFFFFFFFFFFFFFFFFFFFFFFFFFFFFF AND DUP2 MSTORE PUSH1 0x20 ADD SWAP1 DUP2 MSTORE PUSH1 0x20 ADD PUSH1 0x0 KECCAK256 PUSH1 0x0 DUP3 PUSH1 0xFF AND PUSH1 0xFF AND DUP2 MSTORE PUSH1 0x20 ADD SWAP1 DUP2 MSTORE PUSH1 0x20 ADD PUSH1 0x0 KECCAK256 PUSH1 0x0 SWAP1 SLOAD SWAP1 PUSH2 0x100 EXP SWAP1 DIV PUSH1 0xFF AND ISZERO PUSH2 0x3F6 JUMPI PUSH1 0x40 MLOAD PUSH32 0x8C379A000000000000000000000000000000000000000000000000000000000 DUP2 MSTORE PUSH1 0x4 ADD PUSH2 0x3ED SWAP1 PUSH2 0x1972 JUMP JUMPDEST PUSH1 0x40 MLOAD DUP1 SWAP2 SUB SWAP1 REVERT JUMPDEST PUSH1 0x0 PUSH1 0x1 DUP3 PUSH1 0xFF AND DUP2 SLOAD DUP2 LT PUSH2 0x40F JUMPI PUSH2 0x40E PUSH2 0x1992 JUMP JUMPDEST JUMPDEST SWAP1 PUSH1 0x0 MSTORE PUSH1 0x20 PUSH1 0x0 KECCAK256 SWAP1 PUSH1 0x5 MUL ADD SWAP1 POP PUSH1 0x3 DUP1 DUP2 GT ISZERO PUSH2 0x432 JUMPI PUSH2 0x431 PUSH2 0x110C JUMP JUMPDEST JUMPDEST DUP2 PUSH1 0x4 ADD PUSH1 0x2 SWAP1 SLOAD SWAP1 PUSH2 0x100 EXP SWAP1 DIV PUSH1 0xFF AND PUSH1 0x3 DUP2 GT ISZERO PUSH2 0x456 JUMPI PUSH2 0x455 PUSH2 0x110C JUMP JUMPDEST JUMPDEST SUB PUSH2 0x496 JUMPI PUSH1 0x40 MLOAD PUSH32 0x8C379A000000000000000000000000000000000000000000000000000000000 DUP2 MSTORE PUSH1 0x4 ADD PUSH2 0x48D SWAP1 PUSH2 0x1A33 JUMP JUMPDEST PUSH1 0x40 MLOAD DUP1 SWAP2 SUB SWAP1 REVERT JUMPDEST PUSH1 0x1 DUP2 PUSH1 0x2 ADD PUSH1 0x0 DUP3 DUP3 DUP3 SWAP1 SLOAD SWAP1 PUSH2 0x100 EXP SWAP1 DIV PUSH2 0xFFFF AND PUSH2 0x4B8 SWAP2 SWAP1 PUSH2 0x1A82 JUMP JUMPDEST SWAP3 POP PUSH2 0x100 EXP DUP2 SLOAD DUP2 PUSH2 0xFFFF MUL NOT AND SWAP1 DUP4 PUSH2 0xFFFF AND MUL OR SWAP1 SSTORE POP DUP1 PUSH1 0x3 ADD CALLER SWAP1 DUP1 PUSH1 0x1 DUP2 SLOAD ADD DUP1 DUP3 SSTORE DUP1 SWAP2 POP POP PUSH1 0x1 SWAP1 SUB SWAP1 PUSH1 0x0 MSTORE PUSH1 0x20 PUSH1 0x0 KECCAK256 ADD PUSH1 0x0 SWAP1 SWAP2 SWAP1 SWAP2 SWAP1 SWAP2 PUSH2 0x100 EXP DUP2 SLOAD DUP2 PUSH20 0xFFFFFFFFFFFFFFFFFFFFFFFFFFFFFFFFFFFFFFFF MUL NOT AND SWAP1 DUP4 PUSH20 0xFFFFFFFFFFFFFFFFFFFFFFFFFFFFFFFFFFFFFFFF AND MUL OR SWAP1 SSTORE POP PUSH1 0x2 DUP2 PUSH1 0x4 ADD PUSH1 0x2 PUSH2 0x100 EXP DUP2 SLOAD DUP2 PUSH1 0xFF MUL NOT AND SWAP1 DUP4 PUSH1 0x3 DUP2 GT ISZERO PUSH2 0x55F JUMPI PUSH2 0x55E PUSH2 0x110C JUMP JUMPDEST JUMPDEST MUL OR SWAP1 SSTORE POP PUSH1 0x1 PUSH1 0x0 DUP1 CALLER PUSH20 0xFFFFFFFFFFFFFFFFFFFFFFFFFFFFFFFFFFFFFFFF AND PUSH20 0xFFFFFFFFFFFFFFFFFFFFFFFFFFFFFFFFFFFFFFFF AND DUP2 MSTORE PUSH1 0x20 ADD SWAP1 DUP2 MSTORE PUSH1 0x20 ADD PUSH1 0x0 KECCAK256 PUSH1 0x0 DUP5 PUSH1 0xFF AND PUSH1 0xFF AND DUP2 MSTORE PUSH1 0x20 ADD SWAP1 DUP2 MSTORE PUSH1 0x20 ADD PUSH1 0x0 KECCAK256 PUSH1 0x0 PUSH2 0x100 EXP DUP2 SLOAD DUP2 PUSH1 0xFF MUL NOT AND SWAP1 DUP4 ISZERO ISZERO MUL OR SWAP1 SSTORE POP DUP1 PUSH1 0x4 ADD PUSH1 0x0 SWAP1 SLOAD SWAP1 PUSH2 0x100 EXP SWAP1 DIV PUSH2 0xFFFF AND PUSH2 0xFFFF AND DUP2 PUSH1 0x2 ADD PUSH1 0x0 SWAP1 SLOAD SWAP1 PUSH2 0x100 EXP SWAP1 DIV PUSH2 0xFFFF AND PUSH2 0xFFFF AND LT PUSH2 0x699 JUMPI PUSH1 0x3 DUP2 PUSH1 0x4 ADD PUSH1 0x2 PUSH2 0x100 EXP DUP2 SLOAD DUP2 PUSH1 0xFF MUL NOT AND SWAP1 DUP4 PUSH1 0x3 DUP2 GT ISZERO PUSH2 0x62D JUMPI PUSH2 0x62C PUSH2 0x110C JUMP JUMPDEST JUMPDEST MUL OR SWAP1 SSTORE POP DUP1 PUSH1 0x0 ADD PUSH1 0x40 MLOAD PUSH2 0x643 SWAP2 SWAP1 PUSH2 0x1B5B JUMP JUMPDEST PUSH1 0x40 MLOAD DUP1 SWAP2 SUB SWAP1 KECCAK256 PUSH32 0xF905F773C0A2B3D406F07062A5F684E9A9E9EE94A78543E4D7E3032A343FE128 DUP3 PUSH1 0x2 ADD PUSH1 0x0 SWAP1 SLOAD SWAP1 PUSH2 0x100 EXP SWAP1 DIV PUSH2 0xFFFF AND PUSH1 0x40 MLOAD PUSH2 0x68C SWAP2 SWAP1 PUSH2 0x1B72 JUMP JUMPDEST PUSH1 0x40 MLOAD DUP1 SWAP2 SUB SWAP1 LOG2 PUSH2 0x6FB JUMP JUMPDEST DUP1 PUSH1 0x0 ADD PUSH1 0x40 MLOAD PUSH2 0x6AA SWAP2 SWAP1 PUSH2 0x1B5B JUMP JUMPDEST PUSH1 0x40 MLOAD DUP1 SWAP2 SUB SWAP1 KECCAK256 PUSH31 0x68F5ACD04B88BCA43C904950734810E6D43B1F13F00DA9E450355CAD273543 DUP3 PUSH1 0x2 ADD PUSH1 0x0 SWAP1 SLOAD SWAP1 PUSH2 0x100 EXP SWAP1 DIV PUSH2 0xFFFF AND PUSH1 0x40 MLOAD PUSH2 0x6F2 SWAP2 SWAP1 PUSH2 0x1B72 JUMP JUMPDEST PUSH1 0x40 MLOAD DUP1 SWAP2 SUB SWAP1 LOG2 JUMPDEST POP POP JUMP JUMPDEST PUSH1 0x0 PUSH20 0xFFFFFFFFFFFFFFFFFFFFFFFFFFFFFFFFFFFFFFFF AND CALLER PUSH20 0xFFFFFFFFFFFFFFFFFFFFFFFFFFFFFFFFFFFFFFFF AND SUB PUSH2 0x76E JUMPI PUSH1 0x40 MLOAD PUSH32 0x8C379A000000000000000000000000000000000000000000000000000000000 DUP2 MSTORE PUSH1 0x4 ADD PUSH2 0x765 SWAP1 PUSH2 0x189A JUMP JUMPDEST PUSH1 0x40 MLOAD DUP1 SWAP2 SUB SWAP1 REVERT JUMPDEST PUSH2 0x776 PUSH2 0xEF1 JUMP JUMPDEST DUP4 DUP2 PUSH1 0x0 ADD DUP2 SWAP1 MSTORE POP DUP3 DUP2 PUSH1 0x20 ADD DUP2 SWAP1 MSTORE POP DUP2 DUP2 PUSH1 0x80 ADD SWAP1 PUSH2 0xFFFF AND SWAP1 DUP2 PUSH2 0xFFFF AND DUP2 MSTORE POP POP PUSH1 0x1 DUP2 PUSH1 0xA0 ADD SWAP1 PUSH1 0x3 DUP2 GT ISZERO PUSH2 0x7B5 JUMPI PUSH2 0x7B4 PUSH2 0x110C JUMP JUMPDEST JUMPDEST SWAP1 DUP2 PUSH1 0x3 DUP2 GT ISZERO PUSH2 0x7C9 JUMPI PUSH2 0x7C8 PUSH2 0x110C JUMP JUMPDEST JUMPDEST DUP2 MSTORE POP POP PUSH1 0x1 DUP2 SWAP1 DUP1 PUSH1 0x1 DUP2 SLOAD ADD DUP1 DUP3 SSTORE DUP1 SWAP2 POP POP PUSH1 0x1 SWAP1 SUB SWAP1 PUSH1 0x0 MSTORE PUSH1 0x20 PUSH1 0x0 KECCAK256 SWAP1 PUSH1 0x5 MUL ADD PUSH1 0x0 SWAP1 SWAP2 SWAP1 SWAP2 SWAP1 SWAP2 POP PUSH1 0x0 DUP3 ADD MLOAD DUP2 PUSH1 0x0 ADD SWAP1 DUP2 PUSH2 0x80E SWAP2 SWAP1 PUSH2 0x1D24 JUMP JUMPDEST POP PUSH1 0x20 DUP3 ADD MLOAD DUP2 PUSH1 0x1 ADD SWAP1 DUP2 PUSH2 0x824 SWAP2 SWAP1 PUSH2 0x1D24 JUMP JUMPDEST POP PUSH1 0x40 DUP3 ADD MLOAD DUP2 PUSH1 0x2 ADD PUSH1 0x0 PUSH2 0x100 EXP DUP2 SLOAD DUP2 PUSH2 0xFFFF MUL NOT AND SWAP1 DUP4 PUSH2 0xFFFF AND MUL OR SWAP1 SSTORE POP PUSH1 0x60 DUP3 ADD MLOAD DUP2 PUSH1 0x3 ADD SWAP1 DUP1 MLOAD SWAP1 PUSH1 0x20 ADD SWAP1 PUSH2 0x864 SWAP3 SWAP2 SWAP1 PUSH2 0xF41 JUMP JUMPDEST POP PUSH1 0x80 DUP3 ADD MLOAD DUP2 PUSH1 0x4 ADD PUSH1 0x0 PUSH2 0x100 EXP DUP2 SLOAD DUP2 PUSH2 0xFFFF MUL NOT AND SWAP1 DUP4 PUSH2 0xFFFF AND MUL OR SWAP1 SSTORE POP PUSH1 0xA0 DUP3 ADD MLOAD DUP2 PUSH1 0x4 ADD PUSH1 0x2 PUSH2 0x100 EXP DUP2 SLOAD DUP2 PUSH1 0xFF MUL NOT AND SWAP1 DUP4 PUSH1 0x3 DUP2 GT ISZERO PUSH2 0x8B3 JUMPI PUSH2 0x8B2 PUSH2 0x110C JUMP JUMPDEST JUMPDEST MUL OR SWAP1 SSTORE POP POP POP DUP4 PUSH1 0x40 MLOAD PUSH2 0x8C8 SWAP2 SWAP1 PUSH2 0x1E27 JUMP JUMPDEST PUSH1 0x40 MLOAD DUP1 SWAP2 SUB SWAP1 KECCAK256 PUSH32 0xD676BD5A867D12796D6EF62A604D07C83BDCE30AAF9471431D7772E1BA09E222 DUP4 PUSH1 0x40 MLOAD PUSH2 0x8FF SWAP2 SWAP1 PUSH2 0x1B72 JUMP JUMPDEST PUSH1 0x40 MLOAD DUP1 SWAP2 SUB SWAP1 LOG2 POP POP POP POP JUMP JUMPDEST PUSH1 0x60 PUSH1 0x1 DUP1 SLOAD DUP1 PUSH1 0x20 MUL PUSH1 0x20 ADD PUSH1 0x40 MLOAD SWAP1 DUP2 ADD PUSH1 0x40 MSTORE DUP1 SWAP3 SWAP2 SWAP1 DUP2 DUP2 MSTORE PUSH1 0x20 ADD PUSH1 0x0 SWAP1 JUMPDEST DUP3 DUP3 LT ISZERO PUSH2 0xB90 JUMPI DUP4 DUP3 SWAP1 PUSH1 0x0 MSTORE PUSH1 0x20 PUSH1 0x0 KECCAK256 SWAP1 PUSH1 0x5 MUL ADD PUSH1 0x40 MLOAD DUP1 PUSH1 0xC0 ADD PUSH1 0x40 MSTORE SWAP1 DUP2 PUSH1 0x0 DUP3 ADD DUP1 SLOAD PUSH2 0x964 SWAP1 PUSH2 0x181D JUMP JUMPDEST DUP1 PUSH1 0x1F ADD PUSH1 0x20 DUP1 SWAP2 DIV MUL PUSH1 0x20 ADD PUSH1 0x40 MLOAD SWAP1 DUP2 ADD PUSH1 0x40 MSTORE DUP1 SWAP3 SWAP2 SWAP1 DUP2 DUP2 MSTORE PUSH1 0x20 ADD DUP3 DUP1 SLOAD PUSH2 0x990 SWAP1 PUSH2 0x181D JUMP JUMPDEST DUP1 ISZERO PUSH2 0x9DD JUMPI DUP1 PUSH1 0x1F LT PUSH2 0x9B2 JUMPI PUSH2 0x100 DUP1 DUP4 SLOAD DIV MUL DUP4 MSTORE SWAP2 PUSH1 0x20 ADD SWAP2 PUSH2 0x9DD JUMP JUMPDEST DUP3 ADD SWAP2 SWAP1 PUSH1 0x0 MSTORE PUSH1 0x20 PUSH1 0x0 KECCAK256 SWAP1 JUMPDEST DUP2 SLOAD DUP2 MSTORE SWAP1 PUSH1 0x1 ADD SWAP1 PUSH1 0x20 ADD DUP1 DUP4 GT PUSH2 0x9C0 JUMPI DUP3 SWAP1 SUB PUSH1 0x1F AND DUP3 ADD SWAP2 JUMPDEST POP POP POP POP POP DUP2 MSTORE PUSH1 0x20 ADD PUSH1 0x1 DUP3 ADD DUP1 SLOAD PUSH2 0x9F6 SWAP1 PUSH2 0x181D JUMP JUMPDEST DUP1 PUSH1 0x1F ADD PUSH1 0x20 DUP1 SWAP2 DIV MUL PUSH1 0x20 ADD PUSH1 0x40 MLOAD SWAP1 DUP2 ADD PUSH1 0x40 MSTORE DUP1 SWAP3 SWAP2 SWAP1 DUP2 DUP2 MSTORE PUSH1 0x20 ADD DUP3 DUP1 SLOAD PUSH2 0xA22 SWAP1 PUSH2 0x181D JUMP JUMPDEST DUP1 ISZERO PUSH2 0xA6F JUMPI DUP1 PUSH1 0x1F LT PUSH2 0xA44 JUMPI PUSH2 0x100 DUP1 DUP4 SLOAD DIV MUL DUP4 MSTORE SWAP2 PUSH1 0x20 ADD SWAP2 PUSH2 0xA6F JUMP JUMPDEST DUP3 ADD SWAP2 SWAP1 PUSH1 0x0 MSTORE PUSH1 0x20 PUSH1 0x0 KECCAK256 SWAP1 JUMPDEST DUP2 SLOAD DUP2 MSTORE SWAP1 PUSH1 0x1 ADD SWAP1 PUSH1 0x20 ADD DUP1 DUP4 GT PUSH2 0xA52 JUMPI DUP3 SWAP1 SUB PUSH1 0x1F AND DUP3 ADD SWAP2 JUMPDEST POP POP POP POP POP DUP2 MSTORE PUSH1 0x20 ADD PUSH1 0x2 DUP3 ADD PUSH1 0x0 SWAP1 SLOAD SWAP1 PUSH2 0x100 EXP SWAP1 DIV PUSH2 0xFFFF AND PUSH2 0xFFFF AND PUSH2 0xFFFF AND DUP2 MSTORE PUSH1 0x20 ADD PUSH1 0x3 DUP3 ADD DUP1 SLOAD DUP1 PUSH1 0x20 MUL PUSH1 0x20 ADD PUSH1 0x40 MLOAD SWAP1 DUP2 ADD PUSH1 0x40 MSTORE DUP1 SWAP3 SWAP2 SWAP1 DUP2 DUP2 MSTORE PUSH1 0x20 ADD DUP3 DUP1 SLOAD DUP1 ISZERO PUSH2 0xB1D JUMPI PUSH1 0x20 MUL DUP3 ADD SWAP2 SWAP1 PUSH1 0x0 MSTORE PUSH1 0x20 PUSH1 0x0 KECCAK256 SWAP1 JUMPDEST DUP2 PUSH1 0x0 SWAP1 SLOAD SWAP1 PUSH2 0x100 EXP SWAP1 DIV PUSH20 0xFFFFFFFFFFFFFFFFFFFFFFFFFFFFFFFFFFFFFFFF AND PUSH20 0xFFFFFFFFFFFFFFFFFFFFFFFFFFFFFFFFFFFFFFFF AND DUP2 MSTORE PUSH1 0x20 ADD SWAP1 PUSH1 0x1 ADD SWAP1 DUP1 DUP4 GT PUSH2 0xAD3 JUMPI JUMPDEST POP POP POP POP POP DUP2 MSTORE PUSH1 0x20 ADD PUSH1 0x4 DUP3 ADD PUSH1 0x0 SWAP1 SLOAD SWAP1 PUSH2 0x100 EXP SWAP1 DIV PUSH2 0xFFFF AND PUSH2 0xFFFF AND PUSH2 0xFFFF AND DUP2 MSTORE PUSH1 0x20 ADD PUSH1 0x4 DUP3 ADD PUSH1 0x2 SWAP1 SLOAD SWAP1 PUSH2 0x100 EXP SWAP1 DIV PUSH1 0xFF AND PUSH1 0x3 DUP2 GT ISZERO PUSH2 0xB6B JUMPI PUSH2 0xB6A PUSH2 0x110C JUMP JUMPDEST JUMPDEST PUSH1 0x3 DUP2 GT ISZERO PUSH2 0xB7D JUMPI PUSH2 0xB7C PUSH2 0x110C JUMP JUMPDEST JUMPDEST DUP2 MSTORE POP POP DUP2 MSTORE PUSH1 0x20 ADD SWAP1 PUSH1 0x1 ADD SWAP1 PUSH2 0x931 JUMP JUMPDEST POP POP POP POP SWAP1 POP SWAP1 JUMP JUMPDEST PUSH1 0x60 DUP1 PUSH1 0x0 PUSH1 0x60 PUSH1 0x0 DUP1 PUSH1 0x0 PUSH20 0xFFFFFFFFFFFFFFFFFFFFFFFFFFFFFFFFFFFFFFFF AND CALLER PUSH20 0xFFFFFFFFFFFFFFFFFFFFFFFFFFFFFFFFFFFFFFFF AND SUB PUSH2 0xC12 JUMPI PUSH1 0x40 MLOAD PUSH32 0x8C379A000000000000000000000000000000000000000000000000000000000 DUP2 MSTORE PUSH1 0x4 ADD PUSH2 0xC09 SWAP1 PUSH2 0x189A JUMP JUMPDEST PUSH1 0x40 MLOAD DUP1 SWAP2 SUB SWAP1 REVERT JUMPDEST PUSH1 0x1 DUP1 SLOAD SWAP1 POP DUP8 PUSH1 0xFF AND LT PUSH2 0xC5C JUMPI PUSH1 0x40 MLOAD PUSH32 0x8C379A000000000000000000000000000000000000000000000000000000000 DUP2 MSTORE PUSH1 0x4 ADD PUSH2 0xC53 SWAP1 PUSH2 0x1906 JUMP JUMPDEST PUSH1 0x40 MLOAD DUP1 SWAP2 SUB SWAP1 REVERT JUMPDEST PUSH1 0x0 PUSH1 0x1 DUP9 PUSH1 0xFF AND DUP2 SLOAD DUP2 LT PUSH2 0xC75 JUMPI PUSH2 0xC74 PUSH2 0x1992 JUMP JUMPDEST JUMPDEST SWAP1 PUSH1 0x0 MSTORE PUSH1 0x20 PUSH1 0x0 KECCAK256 SWAP1 PUSH1 0x5 MUL ADD PUSH1 0x40 MLOAD DUP1 PUSH1 0xC0 ADD PUSH1 0x40 MSTORE SWAP1 DUP2 PUSH1 0x0 DUP3 ADD DUP1 SLOAD PUSH2 0xC9E SWAP1 PUSH2 0x181D JUMP JUMPDEST DUP1 PUSH1 0x1F ADD PUSH1 0x20 DUP1 SWAP2 DIV MUL PUSH1 0x20 ADD PUSH1 0x40 MLOAD SWAP1 DUP2 ADD PUSH1 0x40 MSTORE DUP1 SWAP3 SWAP2 SWAP1 DUP2 DUP2 MSTORE PUSH1 0x20 ADD DUP3 DUP1 SLOAD PUSH2 0xCCA SWAP1 PUSH2 0x181D JUMP JUMPDEST DUP1 ISZERO PUSH2 0xD17 JUMPI DUP1 PUSH1 0x1F LT PUSH2 0xCEC JUMPI PUSH2 0x100 DUP1 DUP4 SLOAD DIV MUL DUP4 MSTORE SWAP2 PUSH1 0x20 ADD SWAP2 PUSH2 0xD17 JUMP JUMPDEST DUP3 ADD SWAP2 SWAP1 PUSH1 0x0 MSTORE PUSH1 0x20 PUSH1 0x0 KECCAK256 SWAP1 JUMPDEST DUP2 SLOAD DUP2 MSTORE SWAP1 PUSH1 0x1 ADD SWAP1 PUSH1 0x20 ADD DUP1 DUP4 GT PUSH2 0xCFA JUMPI DUP3 SWAP1 SUB PUSH1 0x1F AND DUP3 ADD SWAP2 JUMPDEST POP POP POP POP POP DUP2 MSTORE PUSH1 0x20 ADD PUSH1 0x1 DUP3 ADD DUP1 SLOAD PUSH2 0xD30 SWAP1 PUSH2 0x181D JUMP JUMPDEST DUP1 PUSH1 0x1F ADD PUSH1 0x20 DUP1 SWAP2 DIV MUL PUSH1 0x20 ADD PUSH1 0x40 MLOAD SWAP1 DUP2 ADD PUSH1 0x40 MSTORE DUP1 SWAP3 SWAP2 SWAP1 DUP2 DUP2 MSTORE PUSH1 0x20 ADD DUP3 DUP1 SLOAD PUSH2 0xD5C SWAP1 PUSH2 0x181D JUMP JUMPDEST DUP1 ISZERO PUSH2 0xDA9 JUMPI DUP1 PUSH1 0x1F LT PUSH2 0xD7E JUMPI PUSH2 0x100 DUP1 DUP4 SLOAD DIV MUL DUP4 MSTORE SWAP2 PUSH1 0x20 ADD SWAP2 PUSH2 0xDA9 JUMP JUMPDEST DUP3 ADD SWAP2 SWAP1 PUSH1 0x0 MSTORE PUSH1 0x20 PUSH1 0x0 KECCAK256 SWAP1 JUMPDEST DUP2 SLOAD DUP2 MSTORE SWAP1 PUSH1 0x1 ADD SWAP1 PUSH1 0x20 ADD DUP1 DUP4 GT PUSH2 0xD8C JUMPI DUP3 SWAP1 SUB PUSH1 0x1F AND DUP3 ADD SWAP2 JUMPDEST POP POP POP POP POP DUP2 MSTORE PUSH1 0x20 ADD PUSH1 0x2 DUP3 ADD PUSH1 0x0 SWAP1 SLOAD SWAP1 PUSH2 0x100 EXP SWAP1 DIV PUSH2 0xFFFF AND PUSH2 0xFFFF AND PUSH2 0xFFFF AND DUP2 MSTORE PUSH1 0x20 ADD PUSH1 0x3 DUP3 ADD DUP1 SLOAD DUP1 PUSH1 0x20 MUL PUSH1 0x20 ADD PUSH1 0x40 MLOAD SWAP1 DUP2 ADD PUSH1 0x40 MSTORE DUP1 SWAP3 SWAP2 SWAP1 DUP2 DUP2 MSTORE PUSH1 0x20 ADD DUP3 DUP1 SLOAD DUP1 ISZERO PUSH2 0xE57 JUMPI PUSH1 0x20 MUL DUP3 ADD SWAP2 SWAP1 PUSH1 0x0 MSTORE PUSH1 0x20 PUSH1 0x0 KECCAK256 SWAP1 JUMPDEST DUP2 PUSH1 0x0 SWAP1 SLOAD SWAP1 PUSH2 0x100 EXP SWAP1 DIV PUSH20 0xFFFFFFFFFFFFFFFFFFFFFFFFFFFFFFFFFFFFFFFF AND PUSH20 0xFFFFFFFFFFFFFFFFFFFFFFFFFFFFFFFFFFFFFFFF AND DUP2 MSTORE PUSH1 0x20 ADD SWAP1 PUSH1 0x1 ADD SWAP1 DUP1 DUP4 GT PUSH2 0xE0D JUMPI JUMPDEST POP POP POP POP POP DUP2 MSTORE PUSH1 0x20 ADD PUSH1 0x4 DUP3 ADD PUSH1 0x0 SWAP1 SLOAD SWAP1 PUSH2 0x100 EXP SWAP1 DIV PUSH2 0xFFFF AND PUSH2 0xFFFF AND PUSH2 0xFFFF AND DUP2 MSTORE PUSH1 0x20 ADD PUSH1 0x4 DUP3 ADD PUSH1 0x2 SWAP1 SLOAD SWAP1 PUSH2 0x100 EXP SWAP1 DIV PUSH1 0xFF AND PUSH1 0x3 DUP2 GT ISZERO PUSH2 0xEA5 JUMPI PUSH2 0xEA4 PUSH2 0x110C JUMP JUMPDEST JUMPDEST PUSH1 0x3 DUP2 GT ISZERO PUSH2 0xEB7 JUMPI PUSH2 0xEB6 PUSH2 0x110C JUMP JUMPDEST JUMPDEST DUP2 MSTORE POP POP SWAP1 POP DUP1 PUSH1 0x0 ADD MLOAD SWAP7 POP DUP1 PUSH1 0x20 ADD MLOAD SWAP6 POP DUP1 PUSH1 0x80 ADD MLOAD SWAP5 POP DUP1 PUSH1 0x60 ADD MLOAD SWAP4 POP DUP1 PUSH1 0x40 ADD MLOAD SWAP3 POP DUP1 PUSH1 0xA0 ADD MLOAD SWAP2 POP POP SWAP2 SWAP4 SWAP6 POP SWAP2 SWAP4 SWAP6 JUMP JUMPDEST PUSH1 0x40 MLOAD DUP1 PUSH1 0xC0 ADD PUSH1 0x40 MSTORE DUP1 PUSH1 0x60 DUP2 MSTORE PUSH1 0x20 ADD PUSH1 0x60 DUP2 MSTORE PUSH1 0x20 ADD PUSH1 0x0 PUSH2 0xFFFF AND DUP2 MSTORE PUSH1 0x20 ADD PUSH1 0x60 DUP2 MSTORE PUSH1 0x20 ADD PUSH1 0x0 PUSH2 0xFFFF AND DUP2 MSTORE PUSH1 0x20 ADD PUSH1 0x0 PUSH1 0x3 DUP2 GT ISZERO PUSH2 0xF3B JUMPI PUSH2 0xF3A PUSH2 0x110C JUMP JUMPDEST JUMPDEST DUP2 MSTORE POP SWAP1 JUMP JUMPDEST DUP3 DUP1 SLOAD DUP3 DUP3 SSTORE SWAP1 PUSH1 0x0 MSTORE PUSH1 0x20 PUSH1 0x0 KECCAK256 SWAP1 DUP2 ADD SWAP3 DUP3 ISZERO PUSH2 0xFBA JUMPI SWAP2 PUSH1 0x20 MUL DUP3 ADD JUMPDEST DUP3 DUP2 GT ISZERO PUSH2 0xFB9 JUMPI DUP3 MLOAD DUP3 PUSH1 0x0 PUSH2 0x100 EXP DUP2 SLOAD DUP2 PUSH20 0xFFFFFFFFFFFFFFFFFFFFFFFFFFFFFFFFFFFFFFFF MUL NOT AND SWAP1 DUP4 PUSH20 0xFFFFFFFFFFFFFFFFFFFFFFFFFFFFFFFFFFFFFFFF AND MUL OR SWAP1 SSTORE POP SWAP2 PUSH1 0x20 ADD SWAP2 SWAP1 PUSH1 0x1 ADD SWAP1 PUSH2 0xF61 JUMP JUMPDEST JUMPDEST POP SWAP1 POP PUSH2 0xFC7 SWAP2 SWAP1 PUSH2 0xFCB JUMP JUMPDEST POP SWAP1 JUMP JUMPDEST JUMPDEST DUP1 DUP3 GT ISZERO PUSH2 0xFE4 JUMPI PUSH1 0x0 DUP2 PUSH1 0x0 SWAP1 SSTORE POP PUSH1 0x1 ADD PUSH2 0xFCC JUMP JUMPDEST POP SWAP1 JUMP JUMPDEST PUSH1 0x0 PUSH1 0x40 MLOAD SWAP1 POP SWAP1 JUMP JUMPDEST PUSH1 0x0 DUP1 REVERT JUMPDEST PUSH1 0x0 DUP1 REVERT JUMPDEST PUSH1 0x0 DUP2 SWAP1 POP SWAP2 SWAP1 POP JUMP JUMPDEST PUSH2 0x100F DUP2 PUSH2 0xFFC JUMP JUMPDEST DUP2 EQ PUSH2 0x101A JUMPI PUSH1 0x0 DUP1 REVERT JUMPDEST POP JUMP JUMPDEST PUSH1 0x0 DUP2 CALLDATALOAD SWAP1 POP PUSH2 0x102C DUP2 PUSH2 0x1006 JUMP JUMPDEST SWAP3 SWAP2 POP POP JUMP JUMPDEST PUSH1 0x0 PUSH1 0x20 DUP3 DUP5 SUB SLT ISZERO PUSH2 0x1048 JUMPI PUSH2 0x1047 PUSH2 0xFF2 JUMP JUMPDEST JUMPDEST PUSH1 0x0 PUSH2 0x1056 DUP5 DUP3 DUP6 ADD PUSH2 0x101D JUMP JUMPDEST SWAP2 POP POP SWAP3 SWAP2 POP POP JUMP JUMPDEST PUSH1 0x0 DUP2 MLOAD SWAP1 POP SWAP2 SWAP1 POP JUMP JUMPDEST PUSH1 0x0 DUP3 DUP3 MSTORE PUSH1 0x20 DUP3 ADD SWAP1 POP SWAP3 SWAP2 POP POP JUMP JUMPDEST PUSH1 0x0 JUMPDEST DUP4 DUP2 LT ISZERO PUSH2 0x1099 JUMPI DUP1 DUP3 ADD MLOAD DUP2 DUP5 ADD MSTORE PUSH1 0x20 DUP2 ADD SWAP1 POP PUSH2 0x107E JUMP JUMPDEST PUSH1 0x0 DUP5 DUP5 ADD MSTORE POP POP POP POP JUMP JUMPDEST PUSH1 0x0 PUSH1 0x1F NOT PUSH1 0x1F DUP4 ADD AND SWAP1 POP SWAP2 SWAP1 POP JUMP JUMPDEST PUSH1 0x0 PUSH2 0x10C1 DUP3 PUSH2 0x105F JUMP JUMPDEST PUSH2 0x10CB DUP2 DUP6 PUSH2 0x106A JUMP JUMPDEST SWAP4 POP PUSH2 0x10DB DUP2 DUP6 PUSH1 0x20 DUP7 ADD PUSH2 0x107B JUMP JUMPDEST PUSH2 0x10E4 DUP2 PUSH2 0x10A5 JUMP JUMPDEST DUP5 ADD SWAP2 POP POP SWAP3 SWAP2 POP POP JUMP JUMPDEST PUSH1 0x0 PUSH2 0xFFFF DUP3 AND SWAP1 POP SWAP2 SWAP1 POP JUMP JUMPDEST PUSH2 0x1106 DUP2 PUSH2 0x10EF JUMP JUMPDEST DUP3 MSTORE POP POP JUMP JUMPDEST PUSH32 0x4E487B7100000000000000000000000000000000000000000000000000000000 PUSH1 0x0 MSTORE PUSH1 0x21 PUSH1 0x4 MSTORE PUSH1 0x24 PUSH1 0x0 REVERT JUMPDEST PUSH1 0x4 DUP2 LT PUSH2 0x114C JUMPI PUSH2 0x114B PUSH2 0x110C JUMP JUMPDEST JUMPDEST POP JUMP JUMPDEST PUSH1 0x0 DUP2 SWAP1 POP PUSH2 0x115D DUP3 PUSH2 0x113B JUMP JUMPDEST SWAP2 SWAP1 POP JUMP JUMPDEST PUSH1 0x0 PUSH2 0x116D DUP3 PUSH2 0x114F JUMP JUMPDEST SWAP1 POP SWAP2 SWAP1 POP JUMP JUMPDEST PUSH2 0x117D DUP2 PUSH2 0x1162 JUMP JUMPDEST DUP3 MSTORE POP POP JUMP JUMPDEST PUSH1 0x0 PUSH1 0xA0 DUP3 ADD SWAP1 POP DUP2 DUP2 SUB PUSH1 0x0 DUP4 ADD MSTORE PUSH2 0x119D DUP2 DUP9 PUSH2 0x10B6 JUMP JUMPDEST SWAP1 POP DUP2 DUP2 SUB PUSH1 0x20 DUP4 ADD MSTORE PUSH2 0x11B1 DUP2 DUP8 PUSH2 0x10B6 JUMP JUMPDEST SWAP1 POP PUSH2 0x11C0 PUSH1 0x40 DUP4 ADD DUP7 PUSH2 0x10FD JUMP JUMPDEST PUSH2 0x11CD PUSH1 0x60 DUP4 ADD DUP6 PUSH2 0x10FD JUMP JUMPDEST PUSH2 0x11DA PUSH1 0x80 DUP4 ADD DUP5 PUSH2 0x1174 JUMP JUMPDEST SWAP7 SWAP6 POP POP POP POP POP POP JUMP JUMPDEST PUSH1 0x0 PUSH1 0xFF DUP3 AND SWAP1 POP SWAP2 SWAP1 POP JUMP JUMPDEST PUSH2 0x11FA DUP2 PUSH2 0x11E4 JUMP JUMPDEST DUP2 EQ PUSH2 0x1205 JUMPI PUSH1 0x0 DUP1 REVERT JUMPDEST POP JUMP JUMPDEST PUSH1 0x0 DUP2 CALLDATALOAD SWAP1 POP PUSH2 0x1217 DUP2 PUSH2 0x11F1 JUMP JUMPDEST SWAP3 SWAP2 POP POP JUMP JUMPDEST PUSH1 0x0 PUSH1 0x20 DUP3 DUP5 SUB SLT ISZERO PUSH2 0x1233 JUMPI PUSH2 0x1232 PUSH2 0xFF2 JUMP JUMPDEST JUMPDEST PUSH1 0x0 PUSH2 0x1241 DUP5 DUP3 DUP6 ADD PUSH2 0x1208 JUMP JUMPDEST SWAP2 POP POP SWAP3 SWAP2 POP POP JUMP JUMPDEST PUSH1 0x0 DUP1 REVERT JUMPDEST PUSH1 0x0 DUP1 REVERT JUMPDEST PUSH32 0x4E487B7100000000000000000000000000000000000000000000000000000000 PUSH1 0x0 MSTORE PUSH1 0x41 PUSH1 0x4 MSTORE PUSH1 0x24 PUSH1 0x0 REVERT JUMPDEST PUSH2 0x128C DUP3 PUSH2 0x10A5 JUMP JUMPDEST DUP2 ADD DUP2 DUP2 LT PUSH8 0xFFFFFFFFFFFFFFFF DUP3 GT OR ISZERO PUSH2 0x12AB JUMPI PUSH2 0x12AA PUSH2 0x1254 JUMP JUMPDEST JUMPDEST DUP1 PUSH1 0x40 MSTORE POP POP POP JUMP JUMPDEST PUSH1 0x0 PUSH2 0x12BE PUSH2 0xFE8 JUMP JUMPDEST SWAP1 POP PUSH2 0x12CA DUP3 DUP3 PUSH2 0x1283 JUMP JUMPDEST SWAP2 SWAP1 POP JUMP JUMPDEST PUSH1 0x0 PUSH8 0xFFFFFFFFFFFFFFFF DUP3 GT ISZERO PUSH2 0x12EA JUMPI PUSH2 0x12E9 PUSH2 0x1254 JUMP JUMPDEST JUMPDEST PUSH2 0x12F3 DUP3 PUSH2 0x10A5 JUMP JUMPDEST SWAP1 POP PUSH1 0x20 DUP2 ADD SWAP1 POP SWAP2 SWAP1 POP JUMP JUMPDEST DUP3 DUP2 DUP4 CALLDATACOPY PUSH1 0x0 DUP4 DUP4 ADD MSTORE POP POP POP JUMP JUMPDEST PUSH1 0x0 PUSH2 0x1322 PUSH2 0x131D DUP5 PUSH2 0x12CF JUMP JUMPDEST PUSH2 0x12B4 JUMP JUMPDEST SWAP1 POP DUP3 DUP2 MSTORE PUSH1 0x20 DUP2 ADD DUP5 DUP5 DUP5 ADD GT ISZERO PUSH2 0x133E JUMPI PUSH2 0x133D PUSH2 0x124F JUMP JUMPDEST JUMPDEST PUSH2 0x1349 DUP5 DUP3 DUP6 PUSH2 0x1300 JUMP JUMPDEST POP SWAP4 SWAP3 POP POP POP JUMP JUMPDEST PUSH1 0x0 DUP3 PUSH1 0x1F DUP4 ADD SLT PUSH2 0x1366 JUMPI PUSH2 0x1365 PUSH2 0x124A JUMP JUMPDEST JUMPDEST DUP2 CALLDATALOAD PUSH2 0x1376 DUP5 DUP3 PUSH1 0x20 DUP7 ADD PUSH2 0x130F JUMP JUMPDEST SWAP2 POP POP SWAP3 SWAP2 POP POP JUMP JUMPDEST PUSH2 0x1388 DUP2 PUSH2 0x10EF JUMP JUMPDEST DUP2 EQ PUSH2 0x1393 JUMPI PUSH1 0x0 DUP1 REVERT JUMPDEST POP JUMP JUMPDEST PUSH1 0x0 DUP2 CALLDATALOAD SWAP1 POP PUSH2 0x13A5 DUP2 PUSH2 0x137F JUMP JUMPDEST SWAP3 SWAP2 POP POP JUMP JUMPDEST PUSH1 0x0 DUP1 PUSH1 0x0 PUSH1 0x60 DUP5 DUP7 SUB SLT ISZERO PUSH2 0x13C4 JUMPI PUSH2 0x13C3 PUSH2 0xFF2 JUMP JUMPDEST JUMPDEST PUSH1 0x0 DUP5 ADD CALLDATALOAD PUSH8 0xFFFFFFFFFFFFFFFF DUP2 GT ISZERO PUSH2 0x13E2 JUMPI PUSH2 0x13E1 PUSH2 0xFF7 JUMP JUMPDEST JUMPDEST PUSH2 0x13EE DUP7 DUP3 DUP8 ADD PUSH2 0x1351 JUMP JUMPDEST SWAP4 POP POP PUSH1 0x20 DUP5 ADD CALLDATALOAD PUSH8 0xFFFFFFFFFFFFFFFF DUP2 GT ISZERO PUSH2 0x140F JUMPI PUSH2 0x140E PUSH2 0xFF7 JUMP JUMPDEST JUMPDEST PUSH2 0x141B DUP7 DUP3 DUP8 ADD PUSH2 0x1351 JUMP JUMPDEST SWAP3 POP POP PUSH1 0x40 PUSH2 0x142C DUP7 DUP3 DUP8 ADD PUSH2 0x1396 JUMP JUMPDEST SWAP2 POP POP SWAP3 POP SWAP3 POP SWAP3 JUMP JUMPDEST PUSH1 0x0 DUP2 MLOAD SWAP1 POP SWAP2 SWAP1 POP JUMP JUMPDEST PUSH1 0x0 DUP3 DUP3 MSTORE PUSH1 0x20 DUP3 ADD SWAP1 POP SWAP3 SWAP2 POP POP JUMP JUMPDEST PUSH1 0x0 DUP2 SWAP1 POP PUSH1 0x20 DUP3 ADD SWAP1 POP SWAP2 SWAP1 POP JUMP JUMPDEST PUSH1 0x0 DUP3 DUP3 MSTORE PUSH1 0x20 DUP3 ADD SWAP1 POP SWAP3 SWAP2 POP POP JUMP JUMPDEST PUSH1 0x0 PUSH2 0x147E DUP3 PUSH2 0x105F JUMP JUMPDEST PUSH2 0x1488 DUP2 DUP6 PUSH2 0x1462 JUMP JUMPDEST SWAP4 POP PUSH2 0x1498 DUP2 DUP6 PUSH1 0x20 DUP7 ADD PUSH2 0x107B JUMP JUMPDEST PUSH2 0x14A1 DUP2 PUSH2 0x10A5 JUMP JUMPDEST DUP5 ADD SWAP2 POP POP SWAP3 SWAP2 POP POP JUMP JUMPDEST PUSH2 0x14B5 DUP2 PUSH2 0x10EF JUMP JUMPDEST DUP3 MSTORE POP POP JUMP JUMPDEST PUSH1 0x0 DUP2 MLOAD SWAP1 POP SWAP2 SWAP1 POP JUMP JUMPDEST PUSH1 0x0 DUP3 DUP3 MSTORE PUSH1 0x20 DUP3 ADD SWAP1 POP SWAP3 SWAP2 POP POP JUMP JUMPDEST PUSH1 0x0 DUP2 SWAP1 POP PUSH1 0x20 DUP3 ADD SWAP1 POP SWAP2 SWAP1 POP JUMP JUMPDEST PUSH1 0x0 PUSH20 0xFFFFFFFFFFFFFFFFFFFFFFFFFFFFFFFFFFFFFFFF DUP3 AND SWAP1 POP SWAP2 SWAP1 POP JUMP JUMPDEST PUSH1 0x0 PUSH2 0x1512 DUP3 PUSH2 0x14E7 JUMP JUMPDEST SWAP1 POP SWAP2 SWAP1 POP JUMP JUMPDEST PUSH2 0x1522 DUP2 PUSH2 0x1507 JUMP JUMPDEST DUP3 MSTORE POP POP JUMP JUMPDEST PUSH1 0x0 PUSH2 0x1534 DUP4 DUP4 PUSH2 0x1519 JUMP JUMPDEST PUSH1 0x20 DUP4 ADD SWAP1 POP SWAP3 SWAP2 POP POP JUMP JUMPDEST PUSH1 0x0 PUSH1 0x20 DUP3 ADD SWAP1 POP SWAP2 SWAP1 POP JUMP JUMPDEST PUSH1 0x0 PUSH2 0x1558 DUP3 PUSH2 0x14BB JUMP JUMPDEST PUSH2 0x1562 DUP2 DUP6 PUSH2 0x14C6 JUMP JUMPDEST SWAP4 POP PUSH2 0x156D DUP4 PUSH2 0x14D7 JUMP JUMPDEST DUP1 PUSH1 0x0 JUMPDEST DUP4 DUP2 LT ISZERO PUSH2 0x159E JUMPI DUP2 MLOAD PUSH2 0x1585 DUP9 DUP3 PUSH2 0x1528 JUMP JUMPDEST SWAP8 POP PUSH2 0x1590 DUP4 PUSH2 0x1540 JUMP JUMPDEST SWAP3 POP POP PUSH1 0x1 DUP2 ADD SWAP1 POP PUSH2 0x1571 JUMP JUMPDEST POP DUP6 SWAP4 POP POP POP POP SWAP3 SWAP2 POP POP JUMP JUMPDEST PUSH2 0x15B4 DUP2 PUSH2 0x1162 JUMP JUMPDEST DUP3 MSTORE POP POP JUMP JUMPDEST PUSH1 0x0 PUSH1 0xC0 DUP4 ADD PUSH1 0x0 DUP4 ADD MLOAD DUP5 DUP3 SUB PUSH1 0x0 DUP7 ADD MSTORE PUSH2 0x15D7 DUP3 DUP3 PUSH2 0x1473 JUMP JUMPDEST SWAP2 POP POP PUSH1 0x20 DUP4 ADD MLOAD DUP5 DUP3 SUB PUSH1 0x20 DUP7 ADD MSTORE PUSH2 0x15F1 DUP3 DUP3 PUSH2 0x1473 JUMP JUMPDEST SWAP2 POP POP PUSH1 0x40 DUP4 ADD MLOAD PUSH2 0x1606 PUSH1 0x40 DUP7 ADD DUP3 PUSH2 0x14AC JUMP JUMPDEST POP PUSH1 0x60 DUP4 ADD MLOAD DUP5 DUP3 SUB PUSH1 0x60 DUP7 ADD MSTORE PUSH2 0x161E DUP3 DUP3 PUSH2 0x154D JUMP JUMPDEST SWAP2 POP POP PUSH1 0x80 DUP4 ADD MLOAD PUSH2 0x1633 PUSH1 0x80 DUP7 ADD DUP3 PUSH2 0x14AC JUMP JUMPDEST POP PUSH1 0xA0 DUP4 ADD MLOAD PUSH2 0x1646 PUSH1 0xA0 DUP7 ADD DUP3 PUSH2 0x15AB JUMP JUMPDEST POP DUP1 SWAP2 POP POP SWAP3 SWAP2 POP POP JUMP JUMPDEST PUSH1 0x0 PUSH2 0x165D DUP4 DUP4 PUSH2 0x15BA JUMP JUMPDEST SWAP1 POP SWAP3 SWAP2 POP POP JUMP JUMPDEST PUSH1 0x0 PUSH1 0x20 DUP3 ADD SWAP1 POP SWAP2 SWAP1 POP JUMP JUMPDEST PUSH1 0x0 PUSH2 0x167D DUP3 PUSH2 0x1436 JUMP JUMPDEST PUSH2 0x1687 DUP2 DUP6 PUSH2 0x1441 JUMP JUMPDEST SWAP4 POP DUP4 PUSH1 0x20 DUP3 MUL DUP6 ADD PUSH2 0x1699 DUP6 PUSH2 0x1452 JUMP JUMPDEST DUP1 PUSH1 0x0 JUMPDEST DUP6 DUP2 LT ISZERO PUSH2 0x16D5 JUMPI DUP5 DUP5 SUB DUP10 MSTORE DUP2 MLOAD PUSH2 0x16B6 DUP6 DUP3 PUSH2 0x1651 JUMP JUMPDEST SWAP5 POP PUSH2 0x16C1 DUP4 PUSH2 0x1665 JUMP JUMPDEST SWAP3 POP PUSH1 0x20 DUP11 ADD SWAP10 POP POP PUSH1 0x1 DUP2 ADD SWAP1 POP PUSH2 0x169D JUMP JUMPDEST POP DUP3 SWAP8 POP DUP8 SWAP6 POP POP POP POP POP POP SWAP3 SWAP2 POP POP JUMP JUMPDEST PUSH1 0x0 PUSH1 0x20 DUP3 ADD SWAP1 POP DUP2 DUP2 SUB PUSH1 0x0 DUP4 ADD MSTORE PUSH2 0x1701 DUP2 DUP5 PUSH2 0x1672 JUMP JUMPDEST SWAP1 POP SWAP3 SWAP2 POP POP JUMP JUMPDEST PUSH1 0x0 DUP3 DUP3 MSTORE PUSH1 0x20 DUP3 ADD SWAP1 POP SWAP3 SWAP2 POP POP JUMP JUMPDEST PUSH1 0x0 PUSH2 0x1725 DUP3 PUSH2 0x14BB JUMP JUMPDEST PUSH2 0x172F DUP2 DUP6 PUSH2 0x1709 JUMP JUMPDEST SWAP4 POP PUSH2 0x173A DUP4 PUSH2 0x14D7 JUMP JUMPDEST DUP1 PUSH1 0x0 JUMPDEST DUP4 DUP2 LT ISZERO PUSH2 0x176B JUMPI DUP2 MLOAD PUSH2 0x1752 DUP9 DUP3 PUSH2 0x1528 JUMP JUMPDEST SWAP8 POP PUSH2 0x175D DUP4 PUSH2 0x1540 JUMP JUMPDEST SWAP3 POP POP PUSH1 0x1 DUP2 ADD SWAP1 POP PUSH2 0x173E JUMP JUMPDEST POP DUP6 SWAP4 POP POP POP POP SWAP3 SWAP2 POP POP JUMP JUMPDEST PUSH1 0x0 PUSH1 0xC0 DUP3 ADD SWAP1 POP DUP2 DUP2 SUB PUSH1 0x0 DUP4 ADD MSTORE PUSH2 0x1792 DUP2 DUP10 PUSH2 0x10B6 JUMP JUMPDEST SWAP1 POP DUP2 DUP2 SUB PUSH1 0x20 DUP4 ADD MSTORE PUSH2 0x17A6 DUP2 DUP9 PUSH2 0x10B6 JUMP JUMPDEST SWAP1 POP PUSH2 0x17B5 PUSH1 0x40 DUP4 ADD DUP8 PUSH2 0x10FD JUMP JUMPDEST DUP2 DUP2 SUB PUSH1 0x60 DUP4 ADD MSTORE PUSH2 0x17C7 DUP2 DUP7 PUSH2 0x171A JUMP JUMPDEST SWAP1 POP PUSH2 0x17D6 PUSH1 0x80 DUP4 ADD DUP6 PUSH2 0x10FD JUMP JUMPDEST PUSH2 0x17E3 PUSH1 0xA0 DUP4 ADD DUP5 PUSH2 0x1174 JUMP JUMPDEST SWAP8 SWAP7 POP POP POP POP POP POP POP JUMP JUMPDEST PUSH32 0x4E487B7100000000000000000000000000000000000000000000000000000000 PUSH1 0x0 MSTORE PUSH1 0x22 PUSH1 0x4 MSTORE PUSH1 0x24 PUSH1 0x0 REVERT JUMPDEST PUSH1 0x0 PUSH1 0x2 DUP3 DIV SWAP1 POP PUSH1 0x1 DUP3 AND DUP1 PUSH2 0x1835 JUMPI PUSH1 0x7F DUP3 AND SWAP2 POP JUMPDEST PUSH1 0x20 DUP3 LT DUP2 SUB PUSH2 0x1848 JUMPI PUSH2 0x1847 PUSH2 0x17EE JUMP JUMPDEST JUMPDEST POP SWAP2 SWAP1 POP JUMP JUMPDEST PUSH32 0x5A65726F2061646472657373206973206E6F7420616C6C6F7765640000000000 PUSH1 0x0 DUP3 ADD MSTORE POP JUMP JUMPDEST PUSH1 0x0 PUSH2 0x1884 PUSH1 0x1B DUP4 PUSH2 0x106A JUMP JUMPDEST SWAP2 POP PUSH2 0x188F DUP3 PUSH2 0x184E JUMP JUMPDEST PUSH1 0x20 DUP3 ADD SWAP1 POP SWAP2 SWAP1 POP JUMP JUMPDEST PUSH1 0x0 PUSH1 0x20 DUP3 ADD SWAP1 POP DUP2 DUP2 SUB PUSH1 0x0 DUP4 ADD MSTORE PUSH2 0x18B3 DUP2 PUSH2 0x1877 JUMP JUMPDEST SWAP1 POP SWAP2 SWAP1 POP JUMP JUMPDEST PUSH32 0x496E646578206973206F7574206F6620626F756E640000000000000000000000 PUSH1 0x0 DUP3 ADD MSTORE POP JUMP JUMPDEST PUSH1 0x0 PUSH2 0x18F0 PUSH1 0x15 DUP4 PUSH2 0x106A JUMP JUMPDEST SWAP2 POP PUSH2 0x18FB DUP3 PUSH2 0x18BA JUMP JUMPDEST PUSH1 0x20 DUP3 ADD SWAP1 POP SWAP2 SWAP1 POP JUMP JUMPDEST PUSH1 0x0 PUSH1 0x20 DUP3 ADD SWAP1 POP DUP2 DUP2 SUB PUSH1 0x0 DUP4 ADD MSTORE PUSH2 0x191F DUP2 PUSH2 0x18E3 JUMP JUMPDEST SWAP1 POP SWAP2 SWAP1 POP JUMP JUMPDEST PUSH32 0x596F75206861766520766F74656420616C726561647900000000000000000000 PUSH1 0x0 DUP3 ADD MSTORE POP JUMP JUMPDEST PUSH1 0x0 PUSH2 0x195C PUSH1 0x16 DUP4 PUSH2 0x106A JUMP JUMPDEST SWAP2 POP PUSH2 0x1967 DUP3 PUSH2 0x1926 JUMP JUMPDEST PUSH1 0x20 DUP3 ADD SWAP1 POP SWAP2 SWAP1 POP JUMP JUMPDEST PUSH1 0x0 PUSH1 0x20 DUP3 ADD SWAP1 POP DUP2 DUP2 SUB PUSH1 0x0 DUP4 ADD MSTORE PUSH2 0x198B DUP2 PUSH2 0x194F JUMP JUMPDEST SWAP1 POP SWAP2 SWAP1 POP JUMP JUMPDEST PUSH32 0x4E487B7100000000000000000000000000000000000000000000000000000000 PUSH1 0x0 MSTORE PUSH1 0x32 PUSH1 0x4 MSTORE PUSH1 0x24 PUSH1 0x0 REVERT JUMPDEST PUSH32 0x546869732070726F706F73616C20686173206265656E20616363657074656420 PUSH1 0x0 DUP3 ADD MSTORE PUSH32 0x616C726561647900000000000000000000000000000000000000000000000000 PUSH1 0x20 DUP3 ADD MSTORE POP JUMP JUMPDEST PUSH1 0x0 PUSH2 0x1A1D PUSH1 0x27 DUP4 PUSH2 0x106A JUMP JUMPDEST SWAP2 POP PUSH2 0x1A28 DUP3 PUSH2 0x19C1 JUMP JUMPDEST PUSH1 0x40 DUP3 ADD SWAP1 POP SWAP2 SWAP1 POP JUMP JUMPDEST PUSH1 0x0 PUSH1 0x20 DUP3 ADD SWAP1 POP DUP2 DUP2 SUB PUSH1 0x0 DUP4 ADD MSTORE PUSH2 0x1A4C DUP2 PUSH2 0x1A10 JUMP JUMPDEST SWAP1 POP SWAP2 SWAP1 POP JUMP JUMPDEST PUSH32 0x4E487B7100000000000000000000000000000000000000000000000000000000 PUSH1 0x0 MSTORE PUSH1 0x11 PUSH1 0x4 MSTORE PUSH1 0x24 PUSH1 0x0 REVERT JUMPDEST PUSH1 0x0 PUSH2 0x1A8D DUP3 PUSH2 0x10EF JUMP JUMPDEST SWAP2 POP PUSH2 0x1A98 DUP4 PUSH2 0x10EF JUMP JUMPDEST SWAP3 POP DUP3 DUP3 ADD SWAP1 POP PUSH2 0xFFFF DUP2 GT ISZERO PUSH2 0x1AB2 JUMPI PUSH2 0x1AB1 PUSH2 0x1A53 JUMP JUMPDEST JUMPDEST SWAP3 SWAP2 POP POP JUMP JUMPDEST PUSH1 0x0 DUP2 SWAP1 POP SWAP3 SWAP2 POP POP JUMP JUMPDEST PUSH1 0x0 DUP2 SWAP1 POP DUP2 PUSH1 0x0 MSTORE PUSH1 0x20 PUSH1 0x0 KECCAK256 SWAP1 POP SWAP2 SWAP1 POP JUMP JUMPDEST PUSH1 0x0 DUP2 SLOAD PUSH2 0x1AE5 DUP2 PUSH2 0x181D JUMP JUMPDEST PUSH2 0x1AEF DUP2 DUP7 PUSH2 0x1AB8 JUMP JUMPDEST SWAP5 POP PUSH1 0x1 DUP3 AND PUSH1 0x0 DUP2 EQ PUSH2 0x1B0A JUMPI PUSH1 0x1 DUP2 EQ PUSH2 0x1B1F JUMPI PUSH2 0x1B52 JUMP JUMPDEST PUSH1 0xFF NOT DUP4 AND DUP7 MSTORE DUP2 ISZERO ISZERO DUP3 MUL DUP7 ADD SWAP4 POP PUSH2 0x1B52 JUMP JUMPDEST PUSH2 0x1B28 DUP6 PUSH2 0x1AC3 JUMP JUMPDEST PUSH1 0x0 JUMPDEST DUP4 DUP2 LT ISZERO PUSH2 0x1B4A JUMPI DUP2 SLOAD DUP2 DUP10 ADD MSTORE PUSH1 0x1 DUP3 ADD SWAP2 POP PUSH1 0x20 DUP2 ADD SWAP1 POP PUSH2 0x1B2B JUMP JUMPDEST DUP4 DUP9 ADD SWAP6 POP POP POP JUMPDEST POP POP POP SWAP3 SWAP2 POP POP JUMP JUMPDEST PUSH1 0x0 PUSH2 0x1B67 DUP3 DUP5 PUSH2 0x1AD8 JUMP JUMPDEST SWAP2 POP DUP2 SWAP1 POP SWAP3 SWAP2 POP POP JUMP JUMPDEST PUSH1 0x0 PUSH1 0x20 DUP3 ADD SWAP1 POP PUSH2 0x1B87 PUSH1 0x0 DUP4 ADD DUP5 PUSH2 0x10FD JUMP JUMPDEST SWAP3 SWAP2 POP POP JUMP JUMPDEST PUSH1 0x0 PUSH1 0x20 PUSH1 0x1F DUP4 ADD DIV SWAP1 POP SWAP2 SWAP1 POP JUMP JUMPDEST PUSH1 0x0 DUP3 DUP3 SHL SWAP1 POP SWAP3 SWAP2 POP POP JUMP JUMPDEST PUSH1 0x0 PUSH1 0x8 DUP4 MUL PUSH2 0x1BDA PUSH32 0xFFFFFFFFFFFFFFFFFFFFFFFFFFFFFFFFFFFFFFFFFFFFFFFFFFFFFFFFFFFFFFFF DUP3 PUSH2 0x1B9D JUMP JUMPDEST PUSH2 0x1BE4 DUP7 DUP4 PUSH2 0x1B9D JUMP JUMPDEST SWAP6 POP DUP1 NOT DUP5 AND SWAP4 POP DUP1 DUP7 AND DUP5 OR SWAP3 POP POP POP SWAP4 SWAP3 POP POP POP JUMP JUMPDEST PUSH1 0x0 DUP2 SWAP1 POP SWAP2 SWAP1 POP JUMP JUMPDEST PUSH1 0x0 PUSH2 0x1C21 PUSH2 0x1C1C PUSH2 0x1C17 DUP5 PUSH2 0xFFC JUMP JUMPDEST PUSH2 0x1BFC JUMP JUMPDEST PUSH2 0xFFC JUMP JUMPDEST SWAP1 POP SWAP2 SWAP1 POP JUMP JUMPDEST PUSH1 0x0 DUP2 SWAP1 POP SWAP2 SWAP1 POP JUMP JUMPDEST PUSH2 0x1C3B DUP4 PUSH2 0x1C06 JUMP JUMPDEST PUSH2 0x1C4F PUSH2 0x1C47 DUP3 PUSH2 0x1C28 JUMP JUMPDEST DUP5 DUP5 SLOAD PUSH2 0x1BAA JUMP JUMPDEST DUP3 SSTORE POP POP POP POP JUMP JUMPDEST PUSH1 0x0 SWAP1 JUMP JUMPDEST PUSH2 0x1C64 PUSH2 0x1C57 JUMP JUMPDEST PUSH2 0x1C6F DUP2 DUP5 DUP5 PUSH2 0x1C32 JUMP JUMPDEST POP POP POP JUMP JUMPDEST JUMPDEST DUP2 DUP2 LT ISZERO PUSH2 0x1C93 JUMPI PUSH2 0x1C88 PUSH1 0x0 DUP3 PUSH2 0x1C5C JUMP JUMPDEST PUSH1 0x1 DUP2 ADD SWAP1 POP PUSH2 0x1C75 JUMP JUMPDEST POP POP JUMP JUMPDEST PUSH1 0x1F DUP3 GT ISZERO PUSH2 0x1CD8 JUMPI PUSH2 0x1CA9 DUP2 PUSH2 0x1AC3 JUMP JUMPDEST PUSH2 0x1CB2 DUP5 PUSH2 0x1B8D JUMP JUMPDEST DUP2 ADD PUSH1 0x20 DUP6 LT ISZERO PUSH2 0x1CC1 JUMPI DUP2 SWAP1 POP JUMPDEST PUSH2 0x1CD5 PUSH2 0x1CCD DUP6 PUSH2 0x1B8D JUMP JUMPDEST DUP4 ADD DUP3 PUSH2 0x1C74 JUMP JUMPDEST POP POP JUMPDEST POP POP POP JUMP JUMPDEST PUSH1 0x0 DUP3 DUP3 SHR SWAP1 POP SWAP3 SWAP2 POP POP JUMP JUMPDEST PUSH1 0x0 PUSH2 0x1CFB PUSH1 0x0 NOT DUP5 PUSH1 0x8 MUL PUSH2 0x1CDD JUMP JUMPDEST NOT DUP1 DUP4 AND SWAP2 POP POP SWAP3 SWAP2 POP POP JUMP JUMPDEST PUSH1 0x0 PUSH2 0x1D14 DUP4 DUP4 PUSH2 0x1CEA JUMP JUMPDEST SWAP2 POP DUP3 PUSH1 0x2 MUL DUP3 OR SWAP1 POP SWAP3 SWAP2 POP POP JUMP JUMPDEST PUSH2 0x1D2D DUP3 PUSH2 0x105F JUMP JUMPDEST PUSH8 0xFFFFFFFFFFFFFFFF DUP2 GT ISZERO PUSH2 0x1D46 JUMPI PUSH2 0x1D45 PUSH2 0x1254 JUMP JUMPDEST JUMPDEST PUSH2 0x1D50 DUP3 SLOAD PUSH2 0x181D JUMP JUMPDEST PUSH2 0x1D5B DUP3 DUP3 DUP6 PUSH2 0x1C97 JUMP JUMPDEST PUSH1 0x0 PUSH1 0x20 SWAP1 POP PUSH1 0x1F DUP4 GT PUSH1 0x1 DUP2 EQ PUSH2 0x1D8E JUMPI PUSH1 0x0 DUP5 ISZERO PUSH2 0x1D7C JUMPI DUP3 DUP8 ADD MLOAD SWAP1 POP JUMPDEST PUSH2 0x1D86 DUP6 DUP3 PUSH2 0x1D08 JUMP JUMPDEST DUP7 SSTORE POP PUSH2 0x1DEE JUMP JUMPDEST PUSH1 0x1F NOT DUP5 AND PUSH2 0x1D9C DUP7 PUSH2 0x1AC3 JUMP JUMPDEST PUSH1 0x0 JUMPDEST DUP3 DUP2 LT ISZERO PUSH2 0x1DC4 JUMPI DUP5 DUP10 ADD MLOAD DUP3 SSTORE PUSH1 0x1 DUP3 ADD SWAP2 POP PUSH1 0x20 DUP6 ADD SWAP5 POP PUSH1 0x20 DUP2 ADD SWAP1 POP PUSH2 0x1D9F JUMP JUMPDEST DUP7 DUP4 LT ISZERO PUSH2 0x1DE1 JUMPI DUP5 DUP10 ADD MLOAD PUSH2 0x1DDD PUSH1 0x1F DUP10 AND DUP3 PUSH2 0x1CEA JUMP JUMPDEST DUP4 SSTORE POP JUMPDEST PUSH1 0x1 PUSH1 0x2 DUP9 MUL ADD DUP9 SSTORE POP POP POP JUMPDEST POP POP POP POP POP POP JUMP JUMPDEST PUSH1 0x0 PUSH2 0x1E01 DUP3 PUSH2 0x105F JUMP JUMPDEST PUSH2 0x1E0B DUP2 DUP6 PUSH2 0x1AB8 JUMP JUMPDEST SWAP4 POP PUSH2 0x1E1B DUP2 DUP6 PUSH1 0x20 DUP7 ADD PUSH2 0x107B JUMP JUMPDEST DUP1 DUP5 ADD SWAP2 POP POP SWAP3 SWAP2 POP POP JUMP JUMPDEST PUSH1 0x0 PUSH2 0x1E33 DUP3 DUP5 PUSH2 0x1DF6 JUMP JUMPDEST SWAP2 POP DUP2 SWAP1 POP SWAP3 SWAP2 POP POP JUMP INVALID LOG2 PUSH5 0x6970667358 0x22 SLT KECCAK256 0xEB DUP14 0x24 SGT MSIZE 0xE4 BLOCKHASH EXP 0xEC 0xDD LOG0 0xF9 0xBB 0x2D 0xA6 BYTE NOT 0xF8 0xCD 0xBA 0xFB DUP4 0xF8 PUSH5 0xAEF6B040BF COINBASE RETURNDATASIZE 0xDF PUSH5 0x736F6C6343 STOP ADDMOD SHL STOP CALLER LOG2 PUSH5 0x6970667358 0x22 SLT KECCAK256 0xB5 0xBE EXP 0xE8 0xB1 0xF7 0xF6 SWAP5 0xD6 0xBF PUSH23 0xE236886192195CBDC9B6E941B58EF1A6B858412046473 PUSH16 0x6C634300081B00330000000000000000 "
        },
        "methodIdentifiers": {
          "allContracts(uint256)": "e54e26b9",
          "createProposal(address,string,string,uint16)": "98febabb",
          "deployProposalVote()": "44eb63f7",
          "getAllDeployedContracts()": "6c9364b2",
          "getAllUserDeployedContracts()": "f8cbe524",
          "getProposalFromContract(uint256,uint8)": "0d1f641a",
          "proposalContracts(uint256)": "24b96c3b",
          "voteOnProposal(address,uint8)": "bbc0bd13"
        }
      }
    }
  }
}